{
	"Certificate_Sample/certificate.sol": {
		"Cert": {
			"abi": [
				{
					"inputs": [],
					"stateMutability": "nonpayable",
					"type": "constructor"
				},
				{
					"inputs": [],
					"name": "admin",
					"outputs": [
						{
							"internalType": "address",
							"name": "",
							"type": "address"
						}
					],
					"stateMutability": "view",
					"type": "function"
				},
				{
					"inputs": [
						{
							"internalType": "uint256",
							"name": "",
							"type": "uint256"
						}
					],
					"name": "certificates",
					"outputs": [
						{
							"internalType": "string",
							"name": "name",
							"type": "string"
						},
						{
							"internalType": "string",
							"name": "course",
							"type": "string"
						},
						{
							"internalType": "string",
							"name": "grade",
							"type": "string"
						},
						{
							"internalType": "string",
							"name": "date",
							"type": "string"
						}
					],
					"stateMutability": "view",
					"type": "function"
				},
				{
					"inputs": [
						{
							"internalType": "uint256",
							"name": "_id",
							"type": "uint256"
						},
						{
							"internalType": "string",
							"name": "_name",
							"type": "string"
						},
						{
							"internalType": "string",
							"name": "_course",
							"type": "string"
						},
						{
							"internalType": "string",
							"name": "_grade",
							"type": "string"
						},
						{
							"internalType": "string",
							"name": "_date",
							"type": "string"
						}
					],
					"name": "issue",
					"outputs": [],
					"stateMutability": "nonpayable",
					"type": "function"
				}
			],
			"devdoc": {
				"kind": "dev",
				"methods": {},
				"version": 1
			},
			"evm": {
				"assembly": "    /* \"Certificate_Sample/certificate.sol\":57:634  contract Cert{... */\n  mstore(0x40, 0x80)\n    /* \"Certificate_Sample/certificate.sol\":221:269  constructor(){... */\n  callvalue\n  dup1\n  iszero\n  tag_1\n  jumpi\n  0x00\n  dup1\n  revert\ntag_1:\n  pop\n    /* \"Certificate_Sample/certificate.sol\":252:262  msg.sender */\n  caller\n    /* \"Certificate_Sample/certificate.sol\":244:249  admin */\n  0x00\n  dup1\n    /* \"Certificate_Sample/certificate.sol\":244:262  admin = msg.sender */\n  0x0100\n  exp\n  dup2\n  sload\n  dup2\n  0xffffffffffffffffffffffffffffffffffffffff\n  mul\n  not\n  and\n  swap1\n  dup4\n  0xffffffffffffffffffffffffffffffffffffffff\n  and\n  mul\n  or\n  swap1\n  sstore\n  pop\n    /* \"Certificate_Sample/certificate.sol\":57:634  contract Cert{... */\n  dataSize(sub_0)\n  dup1\n  dataOffset(sub_0)\n  0x00\n  codecopy\n  0x00\n  return\nstop\n\nsub_0: assembly {\n        /* \"Certificate_Sample/certificate.sol\":57:634  contract Cert{... */\n      mstore(0x40, 0x80)\n      callvalue\n      dup1\n      iszero\n      tag_1\n      jumpi\n      0x00\n      dup1\n      revert\n    tag_1:\n      pop\n      jumpi(tag_2, lt(calldatasize, 0x04))\n      shr(0xe0, calldataload(0x00))\n      dup1\n      0x663b3e22\n      eq\n      tag_3\n      jumpi\n      dup1\n      0xd1e7be26\n      eq\n      tag_4\n      jumpi\n      dup1\n      0xf851a440\n      eq\n      tag_5\n      jumpi\n    tag_2:\n      0x00\n      dup1\n      revert\n        /* \"Certificate_Sample/certificate.sol\":372:419  mapping (uint=>certificate) public certificates */\n    tag_3:\n      tag_6\n      0x04\n      dup1\n      calldatasize\n      sub\n      dup2\n      add\n      swap1\n      tag_7\n      swap2\n      swap1\n      tag_8\n      jump\t// in\n    tag_7:\n      tag_9\n      jump\t// in\n    tag_6:\n      mload(0x40)\n      tag_10\n      swap5\n      swap4\n      swap3\n      swap2\n      swap1\n      tag_11\n      jump\t// in\n    tag_10:\n      mload(0x40)\n      dup1\n      swap2\n      sub\n      swap1\n      return\n        /* \"Certificate_Sample/certificate.sol\":426:629  function issue(uint _id,string memory _name,string memory _course,string memory _grade,string memory _date) public onlyAdmin{   ... */\n    tag_4:\n      tag_12\n      0x04\n      dup1\n      calldatasize\n      sub\n      dup2\n      add\n      swap1\n      tag_13\n      swap2\n      swap1\n      tag_14\n      jump\t// in\n    tag_13:\n      tag_15\n      jump\t// in\n    tag_12:\n      stop\n        /* \"Certificate_Sample/certificate.sol\":194:214  address public admin */\n    tag_5:\n      tag_16\n      tag_17\n      jump\t// in\n    tag_16:\n      mload(0x40)\n      tag_18\n      swap2\n      swap1\n      tag_19\n      jump\t// in\n    tag_18:\n      mload(0x40)\n      dup1\n      swap2\n      sub\n      swap1\n      return\n        /* \"Certificate_Sample/certificate.sol\":372:419  mapping (uint=>certificate) public certificates */\n    tag_9:\n      mstore(0x20, 0x01)\n      dup1\n      0x00\n      mstore\n      keccak256(0x00, 0x40)\n      0x00\n      swap2\n      pop\n      swap1\n      pop\n      dup1\n      0x00\n      add\n      dup1\n      sload\n      tag_20\n      swap1\n      tag_21\n      jump\t// in\n    tag_20:\n      dup1\n      0x1f\n      add\n      0x20\n      dup1\n      swap2\n      div\n      mul\n      0x20\n      add\n      mload(0x40)\n      swap1\n      dup2\n      add\n      0x40\n      mstore\n      dup1\n      swap3\n      swap2\n      swap1\n      dup2\n      dup2\n      mstore\n      0x20\n      add\n      dup3\n      dup1\n      sload\n      tag_22\n      swap1\n      tag_21\n      jump\t// in\n    tag_22:\n      dup1\n      iszero\n      tag_23\n      jumpi\n      dup1\n      0x1f\n      lt\n      tag_24\n      jumpi\n      0x0100\n      dup1\n      dup4\n      sload\n      div\n      mul\n      dup4\n      mstore\n      swap2\n      0x20\n      add\n      swap2\n      jump(tag_23)\n    tag_24:\n      dup3\n      add\n      swap2\n      swap1\n      0x00\n      mstore\n      keccak256(0x00, 0x20)\n      swap1\n    tag_25:\n      dup2\n      sload\n      dup2\n      mstore\n      swap1\n      0x01\n      add\n      swap1\n      0x20\n      add\n      dup1\n      dup4\n      gt\n      tag_25\n      jumpi\n      dup3\n      swap1\n      sub\n      0x1f\n      and\n      dup3\n      add\n      swap2\n    tag_23:\n      pop\n      pop\n      pop\n      pop\n      pop\n      swap1\n      dup1\n      0x01\n      add\n      dup1\n      sload\n      tag_26\n      swap1\n      tag_21\n      jump\t// in\n    tag_26:\n      dup1\n      0x1f\n      add\n      0x20\n      dup1\n      swap2\n      div\n      mul\n      0x20\n      add\n      mload(0x40)\n      swap1\n      dup2\n      add\n      0x40\n      mstore\n      dup1\n      swap3\n      swap2\n      swap1\n      dup2\n      dup2\n      mstore\n      0x20\n      add\n      dup3\n      dup1\n      sload\n      tag_27\n      swap1\n      tag_21\n      jump\t// in\n    tag_27:\n      dup1\n      iszero\n      tag_28\n      jumpi\n      dup1\n      0x1f\n      lt\n      tag_29\n      jumpi\n      0x0100\n      dup1\n      dup4\n      sload\n      div\n      mul\n      dup4\n      mstore\n      swap2\n      0x20\n      add\n      swap2\n      jump(tag_28)\n    tag_29:\n      dup3\n      add\n      swap2\n      swap1\n      0x00\n      mstore\n      keccak256(0x00, 0x20)\n      swap1\n    tag_30:\n      dup2\n      sload\n      dup2\n      mstore\n      swap1\n      0x01\n      add\n      swap1\n      0x20\n      add\n      dup1\n      dup4\n      gt\n      tag_30\n      jumpi\n      dup3\n      swap1\n      sub\n      0x1f\n      and\n      dup3\n      add\n      swap2\n    tag_28:\n      pop\n      pop\n      pop\n      pop\n      pop\n      swap1\n      dup1\n      0x02\n      add\n      dup1\n      sload\n      tag_31\n      swap1\n      tag_21\n      jump\t// in\n    tag_31:\n      dup1\n      0x1f\n      add\n      0x20\n      dup1\n      swap2\n      div\n      mul\n      0x20\n      add\n      mload(0x40)\n      swap1\n      dup2\n      add\n      0x40\n      mstore\n      dup1\n      swap3\n      swap2\n      swap1\n      dup2\n      dup2\n      mstore\n      0x20\n      add\n      dup3\n      dup1\n      sload\n      tag_32\n      swap1\n      tag_21\n      jump\t// in\n    tag_32:\n      dup1\n      iszero\n      tag_33\n      jumpi\n      dup1\n      0x1f\n      lt\n      tag_34\n      jumpi\n      0x0100\n      dup1\n      dup4\n      sload\n      div\n      mul\n      dup4\n      mstore\n      swap2\n      0x20\n      add\n      swap2\n      jump(tag_33)\n    tag_34:\n      dup3\n      add\n      swap2\n      swap1\n      0x00\n      mstore\n      keccak256(0x00, 0x20)\n      swap1\n    tag_35:\n      dup2\n      sload\n      dup2\n      mstore\n      swap1\n      0x01\n      add\n      swap1\n      0x20\n      add\n      dup1\n      dup4\n      gt\n      tag_35\n      jumpi\n      dup3\n      swap1\n      sub\n      0x1f\n      and\n      dup3\n      add\n      swap2\n    tag_33:\n      pop\n      pop\n      pop\n      pop\n      pop\n      swap1\n      dup1\n      0x03\n      add\n      dup1\n      sload\n      tag_36\n      swap1\n      tag_21\n      jump\t// in\n    tag_36:\n      dup1\n      0x1f\n      add\n      0x20\n      dup1\n      swap2\n      div\n      mul\n      0x20\n      add\n      mload(0x40)\n      swap1\n      dup2\n      add\n      0x40\n      mstore\n      dup1\n      swap3\n      swap2\n      swap1\n      dup2\n      dup2\n      mstore\n      0x20\n      add\n      dup3\n      dup1\n      sload\n      tag_37\n      swap1\n      tag_21\n      jump\t// in\n    tag_37:\n      dup1\n      iszero\n      tag_38\n      jumpi\n      dup1\n      0x1f\n      lt\n      tag_39\n      jumpi\n      0x0100\n      dup1\n      dup4\n      sload\n      div\n      mul\n      dup4\n      mstore\n      swap2\n      0x20\n      add\n      swap2\n      jump(tag_38)\n    tag_39:\n      dup3\n      add\n      swap2\n      swap1\n      0x00\n      mstore\n      keccak256(0x00, 0x20)\n      swap1\n    tag_40:\n      dup2\n      sload\n      dup2\n      mstore\n      swap1\n      0x01\n      add\n      swap1\n      0x20\n      add\n      dup1\n      dup4\n      gt\n      tag_40\n      jumpi\n      dup3\n      swap1\n      sub\n      0x1f\n      and\n      dup3\n      add\n      swap2\n    tag_38:\n      pop\n      pop\n      pop\n      pop\n      pop\n      swap1\n      pop\n      dup5\n      jump\t// out\n        /* \"Certificate_Sample/certificate.sol\":426:629  function issue(uint _id,string memory _name,string memory _course,string memory _grade,string memory _date) public onlyAdmin{   ... */\n    tag_15:\n        /* \"Certificate_Sample/certificate.sol\":327:332  admin */\n      0x00\n      dup1\n      sload\n      swap1\n      0x0100\n      exp\n      swap1\n      div\n      0xffffffffffffffffffffffffffffffffffffffff\n      and\n        /* \"Certificate_Sample/certificate.sol\":313:332  msg.sender == admin */\n      0xffffffffffffffffffffffffffffffffffffffff\n      and\n        /* \"Certificate_Sample/certificate.sol\":313:323  msg.sender */\n      caller\n        /* \"Certificate_Sample/certificate.sol\":313:332  msg.sender == admin */\n      0xffffffffffffffffffffffffffffffffffffffff\n      and\n      eq\n        /* \"Certificate_Sample/certificate.sol\":305:348  require(msg.sender == admin,\"Unauthorised\") */\n      tag_42\n      jumpi\n      mload(0x40)\n      0x08c379a000000000000000000000000000000000000000000000000000000000\n      dup2\n      mstore\n      0x04\n      add\n      tag_43\n      swap1\n      tag_44\n      jump\t// in\n    tag_43:\n      mload(0x40)\n      dup1\n      swap2\n      sub\n      swap1\n      revert\n    tag_42:\n        /* \"Certificate_Sample/certificate.sol\":583:622  certificate(_name,_course,_grade,_date) */\n      mload(0x40)\n      dup1\n      0x80\n      add\n      0x40\n      mstore\n      dup1\n        /* \"Certificate_Sample/certificate.sol\":595:600  _name */\n      dup6\n        /* \"Certificate_Sample/certificate.sol\":583:622  certificate(_name,_course,_grade,_date) */\n      dup2\n      mstore\n      0x20\n      add\n        /* \"Certificate_Sample/certificate.sol\":601:608  _course */\n      dup5\n        /* \"Certificate_Sample/certificate.sol\":583:622  certificate(_name,_course,_grade,_date) */\n      dup2\n      mstore\n      0x20\n      add\n        /* \"Certificate_Sample/certificate.sol\":609:615  _grade */\n      dup4\n        /* \"Certificate_Sample/certificate.sol\":583:622  certificate(_name,_course,_grade,_date) */\n      dup2\n      mstore\n      0x20\n      add\n        /* \"Certificate_Sample/certificate.sol\":616:621  _date */\n      dup3\n        /* \"Certificate_Sample/certificate.sol\":583:622  certificate(_name,_course,_grade,_date) */\n      dup2\n      mstore\n      pop\n        /* \"Certificate_Sample/certificate.sol\":563:575  certificates */\n      0x01\n        /* \"Certificate_Sample/certificate.sol\":563:580  certificates[_id] */\n      0x00\n        /* \"Certificate_Sample/certificate.sol\":576:579  _id */\n      dup8\n        /* \"Certificate_Sample/certificate.sol\":563:580  certificates[_id] */\n      dup2\n      mstore\n      0x20\n      add\n      swap1\n      dup2\n      mstore\n      0x20\n      add\n      0x00\n      keccak256\n        /* \"Certificate_Sample/certificate.sol\":563:622  certificates[_id] = certificate(_name,_course,_grade,_date) */\n      0x00\n      dup3\n      add\n      mload\n      dup2\n      0x00\n      add\n      swap1\n      dup2\n      tag_46\n      swap2\n      swap1\n      tag_47\n      jump\t// in\n    tag_46:\n      pop\n      0x20\n      dup3\n      add\n      mload\n      dup2\n      0x01\n      add\n      swap1\n      dup2\n      tag_48\n      swap2\n      swap1\n      tag_47\n      jump\t// in\n    tag_48:\n      pop\n      0x40\n      dup3\n      add\n      mload\n      dup2\n      0x02\n      add\n      swap1\n      dup2\n      tag_49\n      swap2\n      swap1\n      tag_47\n      jump\t// in\n    tag_49:\n      pop\n      0x60\n      dup3\n      add\n      mload\n      dup2\n      0x03\n      add\n      swap1\n      dup2\n      tag_50\n      swap2\n      swap1\n      tag_47\n      jump\t// in\n    tag_50:\n      pop\n      swap1\n      pop\n      pop\n        /* \"Certificate_Sample/certificate.sol\":426:629  function issue(uint _id,string memory _name,string memory _course,string memory _grade,string memory _date) public onlyAdmin{   ... */\n      pop\n      pop\n      pop\n      pop\n      pop\n      jump\t// out\n        /* \"Certificate_Sample/certificate.sol\":194:214  address public admin */\n    tag_17:\n      0x00\n      dup1\n      sload\n      swap1\n      0x0100\n      exp\n      swap1\n      div\n      0xffffffffffffffffffffffffffffffffffffffff\n      and\n      dup2\n      jump\t// out\n        /* \"#utility.yul\":7:82   */\n    tag_51:\n        /* \"#utility.yul\":40:46   */\n      0x00\n        /* \"#utility.yul\":73:75   */\n      0x40\n        /* \"#utility.yul\":67:76   */\n      mload\n        /* \"#utility.yul\":57:76   */\n      swap1\n      pop\n        /* \"#utility.yul\":7:82   */\n      swap1\n      jump\t// out\n        /* \"#utility.yul\":88:205   */\n    tag_52:\n        /* \"#utility.yul\":197:198   */\n      0x00\n        /* \"#utility.yul\":194:195   */\n      dup1\n        /* \"#utility.yul\":187:199   */\n      revert\n        /* \"#utility.yul\":211:328   */\n    tag_53:\n        /* \"#utility.yul\":320:321   */\n      0x00\n        /* \"#utility.yul\":317:318   */\n      dup1\n        /* \"#utility.yul\":310:322   */\n      revert\n        /* \"#utility.yul\":334:411   */\n    tag_54:\n        /* \"#utility.yul\":371:378   */\n      0x00\n        /* \"#utility.yul\":400:405   */\n      dup2\n        /* \"#utility.yul\":389:405   */\n      swap1\n      pop\n        /* \"#utility.yul\":334:411   */\n      swap2\n      swap1\n      pop\n      jump\t// out\n        /* \"#utility.yul\":417:539   */\n    tag_55:\n        /* \"#utility.yul\":490:514   */\n      tag_98\n        /* \"#utility.yul\":508:513   */\n      dup2\n        /* \"#utility.yul\":490:514   */\n      tag_54\n      jump\t// in\n    tag_98:\n        /* \"#utility.yul\":483:488   */\n      dup2\n        /* \"#utility.yul\":480:515   */\n      eq\n        /* \"#utility.yul\":470:533   */\n      tag_99\n      jumpi\n        /* \"#utility.yul\":529:530   */\n      0x00\n        /* \"#utility.yul\":526:527   */\n      dup1\n        /* \"#utility.yul\":519:531   */\n      revert\n        /* \"#utility.yul\":470:533   */\n    tag_99:\n        /* \"#utility.yul\":417:539   */\n      pop\n      jump\t// out\n        /* \"#utility.yul\":545:684   */\n    tag_56:\n        /* \"#utility.yul\":591:596   */\n      0x00\n        /* \"#utility.yul\":629:635   */\n      dup2\n        /* \"#utility.yul\":616:636   */\n      calldataload\n        /* \"#utility.yul\":607:636   */\n      swap1\n      pop\n        /* \"#utility.yul\":645:678   */\n      tag_101\n        /* \"#utility.yul\":672:677   */\n      dup2\n        /* \"#utility.yul\":645:678   */\n      tag_55\n      jump\t// in\n    tag_101:\n        /* \"#utility.yul\":545:684   */\n      swap3\n      swap2\n      pop\n      pop\n      jump\t// out\n        /* \"#utility.yul\":690:1019   */\n    tag_8:\n        /* \"#utility.yul\":749:755   */\n      0x00\n        /* \"#utility.yul\":798:800   */\n      0x20\n        /* \"#utility.yul\":786:795   */\n      dup3\n        /* \"#utility.yul\":777:784   */\n      dup5\n        /* \"#utility.yul\":773:796   */\n      sub\n        /* \"#utility.yul\":769:801   */\n      slt\n        /* \"#utility.yul\":766:885   */\n      iszero\n      tag_103\n      jumpi\n        /* \"#utility.yul\":804:883   */\n      tag_104\n      tag_52\n      jump\t// in\n    tag_104:\n        /* \"#utility.yul\":766:885   */\n    tag_103:\n        /* \"#utility.yul\":924:925   */\n      0x00\n        /* \"#utility.yul\":949:1002   */\n      tag_105\n        /* \"#utility.yul\":994:1001   */\n      dup5\n        /* \"#utility.yul\":985:991   */\n      dup3\n        /* \"#utility.yul\":974:983   */\n      dup6\n        /* \"#utility.yul\":970:992   */\n      add\n        /* \"#utility.yul\":949:1002   */\n      tag_56\n      jump\t// in\n    tag_105:\n        /* \"#utility.yul\":939:1002   */\n      swap2\n      pop\n        /* \"#utility.yul\":895:1012   */\n      pop\n        /* \"#utility.yul\":690:1019   */\n      swap3\n      swap2\n      pop\n      pop\n      jump\t// out\n        /* \"#utility.yul\":1025:1124   */\n    tag_57:\n        /* \"#utility.yul\":1077:1083   */\n      0x00\n        /* \"#utility.yul\":1111:1116   */\n      dup2\n        /* \"#utility.yul\":1105:1117   */\n      mload\n        /* \"#utility.yul\":1095:1117   */\n      swap1\n      pop\n        /* \"#utility.yul\":1025:1124   */\n      swap2\n      swap1\n      pop\n      jump\t// out\n        /* \"#utility.yul\":1130:1299   */\n    tag_58:\n        /* \"#utility.yul\":1214:1225   */\n      0x00\n        /* \"#utility.yul\":1248:1254   */\n      dup3\n        /* \"#utility.yul\":1243:1246   */\n      dup3\n        /* \"#utility.yul\":1236:1255   */\n      mstore\n        /* \"#utility.yul\":1288:1292   */\n      0x20\n        /* \"#utility.yul\":1283:1286   */\n      dup3\n        /* \"#utility.yul\":1279:1293   */\n      add\n        /* \"#utility.yul\":1264:1293   */\n      swap1\n      pop\n        /* \"#utility.yul\":1130:1299   */\n      swap3\n      swap2\n      pop\n      pop\n      jump\t// out\n        /* \"#utility.yul\":1305:1444   */\n    tag_59:\n        /* \"#utility.yul\":1394:1400   */\n      dup3\n        /* \"#utility.yul\":1389:1392   */\n      dup2\n        /* \"#utility.yul\":1384:1387   */\n      dup4\n        /* \"#utility.yul\":1378:1401   */\n      mcopy\n        /* \"#utility.yul\":1435:1436   */\n      0x00\n        /* \"#utility.yul\":1426:1432   */\n      dup4\n        /* \"#utility.yul\":1421:1424   */\n      dup4\n        /* \"#utility.yul\":1417:1433   */\n      add\n        /* \"#utility.yul\":1410:1437   */\n      mstore\n        /* \"#utility.yul\":1305:1444   */\n      pop\n      pop\n      pop\n      jump\t// out\n        /* \"#utility.yul\":1450:1552   */\n    tag_60:\n        /* \"#utility.yul\":1491:1497   */\n      0x00\n        /* \"#utility.yul\":1542:1544   */\n      0x1f\n        /* \"#utility.yul\":1538:1545   */\n      not\n        /* \"#utility.yul\":1533:1535   */\n      0x1f\n        /* \"#utility.yul\":1526:1531   */\n      dup4\n        /* \"#utility.yul\":1522:1536   */\n      add\n        /* \"#utility.yul\":1518:1546   */\n      and\n        /* \"#utility.yul\":1508:1546   */\n      swap1\n      pop\n        /* \"#utility.yul\":1450:1552   */\n      swap2\n      swap1\n      pop\n      jump\t// out\n        /* \"#utility.yul\":1558:1935   */\n    tag_61:\n        /* \"#utility.yul\":1646:1649   */\n      0x00\n        /* \"#utility.yul\":1674:1713   */\n      tag_111\n        /* \"#utility.yul\":1707:1712   */\n      dup3\n        /* \"#utility.yul\":1674:1713   */\n      tag_57\n      jump\t// in\n    tag_111:\n        /* \"#utility.yul\":1729:1800   */\n      tag_112\n        /* \"#utility.yul\":1793:1799   */\n      dup2\n        /* \"#utility.yul\":1788:1791   */\n      dup6\n        /* \"#utility.yul\":1729:1800   */\n      tag_58\n      jump\t// in\n    tag_112:\n        /* \"#utility.yul\":1722:1800   */\n      swap4\n      pop\n        /* \"#utility.yul\":1809:1874   */\n      tag_113\n        /* \"#utility.yul\":1867:1873   */\n      dup2\n        /* \"#utility.yul\":1862:1865   */\n      dup6\n        /* \"#utility.yul\":1855:1859   */\n      0x20\n        /* \"#utility.yul\":1848:1853   */\n      dup7\n        /* \"#utility.yul\":1844:1860   */\n      add\n        /* \"#utility.yul\":1809:1874   */\n      tag_59\n      jump\t// in\n    tag_113:\n        /* \"#utility.yul\":1899:1928   */\n      tag_114\n        /* \"#utility.yul\":1921:1927   */\n      dup2\n        /* \"#utility.yul\":1899:1928   */\n      tag_60\n      jump\t// in\n    tag_114:\n        /* \"#utility.yul\":1894:1897   */\n      dup5\n        /* \"#utility.yul\":1890:1929   */\n      add\n        /* \"#utility.yul\":1883:1929   */\n      swap2\n      pop\n        /* \"#utility.yul\":1650:1935   */\n      pop\n        /* \"#utility.yul\":1558:1935   */\n      swap3\n      swap2\n      pop\n      pop\n      jump\t// out\n        /* \"#utility.yul\":1941:2858   */\n    tag_11:\n        /* \"#utility.yul\":2198:2202   */\n      0x00\n        /* \"#utility.yul\":2236:2239   */\n      0x80\n        /* \"#utility.yul\":2225:2234   */\n      dup3\n        /* \"#utility.yul\":2221:2240   */\n      add\n        /* \"#utility.yul\":2213:2240   */\n      swap1\n      pop\n        /* \"#utility.yul\":2286:2295   */\n      dup2\n        /* \"#utility.yul\":2280:2284   */\n      dup2\n        /* \"#utility.yul\":2276:2296   */\n      sub\n        /* \"#utility.yul\":2272:2273   */\n      0x00\n        /* \"#utility.yul\":2261:2270   */\n      dup4\n        /* \"#utility.yul\":2257:2274   */\n      add\n        /* \"#utility.yul\":2250:2297   */\n      mstore\n        /* \"#utility.yul\":2314:2392   */\n      tag_116\n        /* \"#utility.yul\":2387:2391   */\n      dup2\n        /* \"#utility.yul\":2378:2384   */\n      dup8\n        /* \"#utility.yul\":2314:2392   */\n      tag_61\n      jump\t// in\n    tag_116:\n        /* \"#utility.yul\":2306:2392   */\n      swap1\n      pop\n        /* \"#utility.yul\":2439:2448   */\n      dup2\n        /* \"#utility.yul\":2433:2437   */\n      dup2\n        /* \"#utility.yul\":2429:2449   */\n      sub\n        /* \"#utility.yul\":2424:2426   */\n      0x20\n        /* \"#utility.yul\":2413:2422   */\n      dup4\n        /* \"#utility.yul\":2409:2427   */\n      add\n        /* \"#utility.yul\":2402:2450   */\n      mstore\n        /* \"#utility.yul\":2467:2545   */\n      tag_117\n        /* \"#utility.yul\":2540:2544   */\n      dup2\n        /* \"#utility.yul\":2531:2537   */\n      dup7\n        /* \"#utility.yul\":2467:2545   */\n      tag_61\n      jump\t// in\n    tag_117:\n        /* \"#utility.yul\":2459:2545   */\n      swap1\n      pop\n        /* \"#utility.yul\":2592:2601   */\n      dup2\n        /* \"#utility.yul\":2586:2590   */\n      dup2\n        /* \"#utility.yul\":2582:2602   */\n      sub\n        /* \"#utility.yul\":2577:2579   */\n      0x40\n        /* \"#utility.yul\":2566:2575   */\n      dup4\n        /* \"#utility.yul\":2562:2580   */\n      add\n        /* \"#utility.yul\":2555:2603   */\n      mstore\n        /* \"#utility.yul\":2620:2698   */\n      tag_118\n        /* \"#utility.yul\":2693:2697   */\n      dup2\n        /* \"#utility.yul\":2684:2690   */\n      dup6\n        /* \"#utility.yul\":2620:2698   */\n      tag_61\n      jump\t// in\n    tag_118:\n        /* \"#utility.yul\":2612:2698   */\n      swap1\n      pop\n        /* \"#utility.yul\":2745:2754   */\n      dup2\n        /* \"#utility.yul\":2739:2743   */\n      dup2\n        /* \"#utility.yul\":2735:2755   */\n      sub\n        /* \"#utility.yul\":2730:2732   */\n      0x60\n        /* \"#utility.yul\":2719:2728   */\n      dup4\n        /* \"#utility.yul\":2715:2733   */\n      add\n        /* \"#utility.yul\":2708:2756   */\n      mstore\n        /* \"#utility.yul\":2773:2851   */\n      tag_119\n        /* \"#utility.yul\":2846:2850   */\n      dup2\n        /* \"#utility.yul\":2837:2843   */\n      dup5\n        /* \"#utility.yul\":2773:2851   */\n      tag_61\n      jump\t// in\n    tag_119:\n        /* \"#utility.yul\":2765:2851   */\n      swap1\n      pop\n        /* \"#utility.yul\":1941:2858   */\n      swap6\n      swap5\n      pop\n      pop\n      pop\n      pop\n      pop\n      jump\t// out\n        /* \"#utility.yul\":2864:2981   */\n    tag_62:\n        /* \"#utility.yul\":2973:2974   */\n      0x00\n        /* \"#utility.yul\":2970:2971   */\n      dup1\n        /* \"#utility.yul\":2963:2975   */\n      revert\n        /* \"#utility.yul\":2987:3104   */\n    tag_63:\n        /* \"#utility.yul\":3096:3097   */\n      0x00\n        /* \"#utility.yul\":3093:3094   */\n      dup1\n        /* \"#utility.yul\":3086:3098   */\n      revert\n        /* \"#utility.yul\":3110:3290   */\n    tag_64:\n        /* \"#utility.yul\":3158:3235   */\n      0x4e487b7100000000000000000000000000000000000000000000000000000000\n        /* \"#utility.yul\":3155:3156   */\n      0x00\n        /* \"#utility.yul\":3148:3236   */\n      mstore\n        /* \"#utility.yul\":3255:3259   */\n      0x41\n        /* \"#utility.yul\":3252:3253   */\n      0x04\n        /* \"#utility.yul\":3245:3260   */\n      mstore\n        /* \"#utility.yul\":3279:3283   */\n      0x24\n        /* \"#utility.yul\":3276:3277   */\n      0x00\n        /* \"#utility.yul\":3269:3284   */\n      revert\n        /* \"#utility.yul\":3296:3577   */\n    tag_65:\n        /* \"#utility.yul\":3379:3406   */\n      tag_124\n        /* \"#utility.yul\":3401:3405   */\n      dup3\n        /* \"#utility.yul\":3379:3406   */\n      tag_60\n      jump\t// in\n    tag_124:\n        /* \"#utility.yul\":3371:3377   */\n      dup2\n        /* \"#utility.yul\":3367:3407   */\n      add\n        /* \"#utility.yul\":3509:3515   */\n      dup2\n        /* \"#utility.yul\":3497:3507   */\n      dup2\n        /* \"#utility.yul\":3494:3516   */\n      lt\n        /* \"#utility.yul\":3473:3491   */\n      0xffffffffffffffff\n        /* \"#utility.yul\":3461:3471   */\n      dup3\n        /* \"#utility.yul\":3458:3492   */\n      gt\n        /* \"#utility.yul\":3455:3517   */\n      or\n        /* \"#utility.yul\":3452:3540   */\n      iszero\n      tag_125\n      jumpi\n        /* \"#utility.yul\":3520:3538   */\n      tag_126\n      tag_64\n      jump\t// in\n    tag_126:\n        /* \"#utility.yul\":3452:3540   */\n    tag_125:\n        /* \"#utility.yul\":3560:3570   */\n      dup1\n        /* \"#utility.yul\":3556:3558   */\n      0x40\n        /* \"#utility.yul\":3549:3571   */\n      mstore\n        /* \"#utility.yul\":3339:3577   */\n      pop\n        /* \"#utility.yul\":3296:3577   */\n      pop\n      pop\n      jump\t// out\n        /* \"#utility.yul\":3583:3712   */\n    tag_66:\n        /* \"#utility.yul\":3617:3623   */\n      0x00\n        /* \"#utility.yul\":3644:3664   */\n      tag_128\n      tag_51\n      jump\t// in\n    tag_128:\n        /* \"#utility.yul\":3634:3664   */\n      swap1\n      pop\n        /* \"#utility.yul\":3673:3706   */\n      tag_129\n        /* \"#utility.yul\":3701:3705   */\n      dup3\n        /* \"#utility.yul\":3693:3699   */\n      dup3\n        /* \"#utility.yul\":3673:3706   */\n      tag_65\n      jump\t// in\n    tag_129:\n        /* \"#utility.yul\":3583:3712   */\n      swap2\n      swap1\n      pop\n      jump\t// out\n        /* \"#utility.yul\":3718:4026   */\n    tag_67:\n        /* \"#utility.yul\":3780:3784   */\n      0x00\n        /* \"#utility.yul\":3870:3888   */\n      0xffffffffffffffff\n        /* \"#utility.yul\":3862:3868   */\n      dup3\n        /* \"#utility.yul\":3859:3889   */\n      gt\n        /* \"#utility.yul\":3856:3912   */\n      iszero\n      tag_131\n      jumpi\n        /* \"#utility.yul\":3892:3910   */\n      tag_132\n      tag_64\n      jump\t// in\n    tag_132:\n        /* \"#utility.yul\":3856:3912   */\n    tag_131:\n        /* \"#utility.yul\":3930:3959   */\n      tag_133\n        /* \"#utility.yul\":3952:3958   */\n      dup3\n        /* \"#utility.yul\":3930:3959   */\n      tag_60\n      jump\t// in\n    tag_133:\n        /* \"#utility.yul\":3922:3959   */\n      swap1\n      pop\n        /* \"#utility.yul\":4014:4018   */\n      0x20\n        /* \"#utility.yul\":4008:4012   */\n      dup2\n        /* \"#utility.yul\":4004:4019   */\n      add\n        /* \"#utility.yul\":3996:4019   */\n      swap1\n      pop\n        /* \"#utility.yul\":3718:4026   */\n      swap2\n      swap1\n      pop\n      jump\t// out\n        /* \"#utility.yul\":4032:4180   */\n    tag_68:\n        /* \"#utility.yul\":4130:4136   */\n      dup3\n        /* \"#utility.yul\":4125:4128   */\n      dup2\n        /* \"#utility.yul\":4120:4123   */\n      dup4\n        /* \"#utility.yul\":4107:4137   */\n      calldatacopy\n        /* \"#utility.yul\":4171:4172   */\n      0x00\n        /* \"#utility.yul\":4162:4168   */\n      dup4\n        /* \"#utility.yul\":4157:4160   */\n      dup4\n        /* \"#utility.yul\":4153:4169   */\n      add\n        /* \"#utility.yul\":4146:4173   */\n      mstore\n        /* \"#utility.yul\":4032:4180   */\n      pop\n      pop\n      pop\n      jump\t// out\n        /* \"#utility.yul\":4186:4611   */\n    tag_69:\n        /* \"#utility.yul\":4264:4269   */\n      0x00\n        /* \"#utility.yul\":4289:4355   */\n      tag_136\n        /* \"#utility.yul\":4305:4354   */\n      tag_137\n        /* \"#utility.yul\":4347:4353   */\n      dup5\n        /* \"#utility.yul\":4305:4354   */\n      tag_67\n      jump\t// in\n    tag_137:\n        /* \"#utility.yul\":4289:4355   */\n      tag_66\n      jump\t// in\n    tag_136:\n        /* \"#utility.yul\":4280:4355   */\n      swap1\n      pop\n        /* \"#utility.yul\":4378:4384   */\n      dup3\n        /* \"#utility.yul\":4371:4376   */\n      dup2\n        /* \"#utility.yul\":4364:4385   */\n      mstore\n        /* \"#utility.yul\":4416:4420   */\n      0x20\n        /* \"#utility.yul\":4409:4414   */\n      dup2\n        /* \"#utility.yul\":4405:4421   */\n      add\n        /* \"#utility.yul\":4454:4457   */\n      dup5\n        /* \"#utility.yul\":4445:4451   */\n      dup5\n        /* \"#utility.yul\":4440:4443   */\n      dup5\n        /* \"#utility.yul\":4436:4452   */\n      add\n        /* \"#utility.yul\":4433:4458   */\n      gt\n        /* \"#utility.yul\":4430:4542   */\n      iszero\n      tag_138\n      jumpi\n        /* \"#utility.yul\":4461:4540   */\n      tag_139\n      tag_63\n      jump\t// in\n    tag_139:\n        /* \"#utility.yul\":4430:4542   */\n    tag_138:\n        /* \"#utility.yul\":4551:4605   */\n      tag_140\n        /* \"#utility.yul\":4598:4604   */\n      dup5\n        /* \"#utility.yul\":4593:4596   */\n      dup3\n        /* \"#utility.yul\":4588:4591   */\n      dup6\n        /* \"#utility.yul\":4551:4605   */\n      tag_68\n      jump\t// in\n    tag_140:\n        /* \"#utility.yul\":4270:4611   */\n      pop\n        /* \"#utility.yul\":4186:4611   */\n      swap4\n      swap3\n      pop\n      pop\n      pop\n      jump\t// out\n        /* \"#utility.yul\":4631:4971   */\n    tag_70:\n        /* \"#utility.yul\":4687:4692   */\n      0x00\n        /* \"#utility.yul\":4736:4739   */\n      dup3\n        /* \"#utility.yul\":4729:4733   */\n      0x1f\n        /* \"#utility.yul\":4721:4727   */\n      dup4\n        /* \"#utility.yul\":4717:4734   */\n      add\n        /* \"#utility.yul\":4713:4740   */\n      slt\n        /* \"#utility.yul\":4703:4825   */\n      tag_142\n      jumpi\n        /* \"#utility.yul\":4744:4823   */\n      tag_143\n      tag_62\n      jump\t// in\n    tag_143:\n        /* \"#utility.yul\":4703:4825   */\n    tag_142:\n        /* \"#utility.yul\":4861:4867   */\n      dup2\n        /* \"#utility.yul\":4848:4868   */\n      calldataload\n        /* \"#utility.yul\":4886:4965   */\n      tag_144\n        /* \"#utility.yul\":4961:4964   */\n      dup5\n        /* \"#utility.yul\":4953:4959   */\n      dup3\n        /* \"#utility.yul\":4946:4950   */\n      0x20\n        /* \"#utility.yul\":4938:4944   */\n      dup7\n        /* \"#utility.yul\":4934:4951   */\n      add\n        /* \"#utility.yul\":4886:4965   */\n      tag_69\n      jump\t// in\n    tag_144:\n        /* \"#utility.yul\":4877:4965   */\n      swap2\n      pop\n        /* \"#utility.yul\":4693:4971   */\n      pop\n        /* \"#utility.yul\":4631:4971   */\n      swap3\n      swap2\n      pop\n      pop\n      jump\t// out\n        /* \"#utility.yul\":4977:6608   */\n    tag_14:\n        /* \"#utility.yul\":5112:5118   */\n      0x00\n        /* \"#utility.yul\":5120:5126   */\n      dup1\n        /* \"#utility.yul\":5128:5134   */\n      0x00\n        /* \"#utility.yul\":5136:5142   */\n      dup1\n        /* \"#utility.yul\":5144:5150   */\n      0x00\n        /* \"#utility.yul\":5193:5196   */\n      0xa0\n        /* \"#utility.yul\":5181:5190   */\n      dup7\n        /* \"#utility.yul\":5172:5179   */\n      dup9\n        /* \"#utility.yul\":5168:5191   */\n      sub\n        /* \"#utility.yul\":5164:5197   */\n      slt\n        /* \"#utility.yul\":5161:5281   */\n      iszero\n      tag_146\n      jumpi\n        /* \"#utility.yul\":5200:5279   */\n      tag_147\n      tag_52\n      jump\t// in\n    tag_147:\n        /* \"#utility.yul\":5161:5281   */\n    tag_146:\n        /* \"#utility.yul\":5320:5321   */\n      0x00\n        /* \"#utility.yul\":5345:5398   */\n      tag_148\n        /* \"#utility.yul\":5390:5397   */\n      dup9\n        /* \"#utility.yul\":5381:5387   */\n      dup3\n        /* \"#utility.yul\":5370:5379   */\n      dup10\n        /* \"#utility.yul\":5366:5388   */\n      add\n        /* \"#utility.yul\":5345:5398   */\n      tag_56\n      jump\t// in\n    tag_148:\n        /* \"#utility.yul\":5335:5398   */\n      swap6\n      pop\n        /* \"#utility.yul\":5291:5408   */\n      pop\n        /* \"#utility.yul\":5475:5477   */\n      0x20\n        /* \"#utility.yul\":5464:5473   */\n      dup7\n        /* \"#utility.yul\":5460:5478   */\n      add\n        /* \"#utility.yul\":5447:5479   */\n      calldataload\n        /* \"#utility.yul\":5506:5524   */\n      0xffffffffffffffff\n        /* \"#utility.yul\":5498:5504   */\n      dup2\n        /* \"#utility.yul\":5495:5525   */\n      gt\n        /* \"#utility.yul\":5492:5609   */\n      iszero\n      tag_149\n      jumpi\n        /* \"#utility.yul\":5528:5607   */\n      tag_150\n      tag_53\n      jump\t// in\n    tag_150:\n        /* \"#utility.yul\":5492:5609   */\n    tag_149:\n        /* \"#utility.yul\":5633:5696   */\n      tag_151\n        /* \"#utility.yul\":5688:5695   */\n      dup9\n        /* \"#utility.yul\":5679:5685   */\n      dup3\n        /* \"#utility.yul\":5668:5677   */\n      dup10\n        /* \"#utility.yul\":5664:5686   */\n      add\n        /* \"#utility.yul\":5633:5696   */\n      tag_70\n      jump\t// in\n    tag_151:\n        /* \"#utility.yul\":5623:5696   */\n      swap5\n      pop\n        /* \"#utility.yul\":5418:5706   */\n      pop\n        /* \"#utility.yul\":5773:5775   */\n      0x40\n        /* \"#utility.yul\":5762:5771   */\n      dup7\n        /* \"#utility.yul\":5758:5776   */\n      add\n        /* \"#utility.yul\":5745:5777   */\n      calldataload\n        /* \"#utility.yul\":5804:5822   */\n      0xffffffffffffffff\n        /* \"#utility.yul\":5796:5802   */\n      dup2\n        /* \"#utility.yul\":5793:5823   */\n      gt\n        /* \"#utility.yul\":5790:5907   */\n      iszero\n      tag_152\n      jumpi\n        /* \"#utility.yul\":5826:5905   */\n      tag_153\n      tag_53\n      jump\t// in\n    tag_153:\n        /* \"#utility.yul\":5790:5907   */\n    tag_152:\n        /* \"#utility.yul\":5931:5994   */\n      tag_154\n        /* \"#utility.yul\":5986:5993   */\n      dup9\n        /* \"#utility.yul\":5977:5983   */\n      dup3\n        /* \"#utility.yul\":5966:5975   */\n      dup10\n        /* \"#utility.yul\":5962:5984   */\n      add\n        /* \"#utility.yul\":5931:5994   */\n      tag_70\n      jump\t// in\n    tag_154:\n        /* \"#utility.yul\":5921:5994   */\n      swap4\n      pop\n        /* \"#utility.yul\":5716:6004   */\n      pop\n        /* \"#utility.yul\":6071:6073   */\n      0x60\n        /* \"#utility.yul\":6060:6069   */\n      dup7\n        /* \"#utility.yul\":6056:6074   */\n      add\n        /* \"#utility.yul\":6043:6075   */\n      calldataload\n        /* \"#utility.yul\":6102:6120   */\n      0xffffffffffffffff\n        /* \"#utility.yul\":6094:6100   */\n      dup2\n        /* \"#utility.yul\":6091:6121   */\n      gt\n        /* \"#utility.yul\":6088:6205   */\n      iszero\n      tag_155\n      jumpi\n        /* \"#utility.yul\":6124:6203   */\n      tag_156\n      tag_53\n      jump\t// in\n    tag_156:\n        /* \"#utility.yul\":6088:6205   */\n    tag_155:\n        /* \"#utility.yul\":6229:6292   */\n      tag_157\n        /* \"#utility.yul\":6284:6291   */\n      dup9\n        /* \"#utility.yul\":6275:6281   */\n      dup3\n        /* \"#utility.yul\":6264:6273   */\n      dup10\n        /* \"#utility.yul\":6260:6282   */\n      add\n        /* \"#utility.yul\":6229:6292   */\n      tag_70\n      jump\t// in\n    tag_157:\n        /* \"#utility.yul\":6219:6292   */\n      swap3\n      pop\n        /* \"#utility.yul\":6014:6302   */\n      pop\n        /* \"#utility.yul\":6369:6372   */\n      0x80\n        /* \"#utility.yul\":6358:6367   */\n      dup7\n        /* \"#utility.yul\":6354:6373   */\n      add\n        /* \"#utility.yul\":6341:6374   */\n      calldataload\n        /* \"#utility.yul\":6401:6419   */\n      0xffffffffffffffff\n        /* \"#utility.yul\":6393:6399   */\n      dup2\n        /* \"#utility.yul\":6390:6420   */\n      gt\n        /* \"#utility.yul\":6387:6504   */\n      iszero\n      tag_158\n      jumpi\n        /* \"#utility.yul\":6423:6502   */\n      tag_159\n      tag_53\n      jump\t// in\n    tag_159:\n        /* \"#utility.yul\":6387:6504   */\n    tag_158:\n        /* \"#utility.yul\":6528:6591   */\n      tag_160\n        /* \"#utility.yul\":6583:6590   */\n      dup9\n        /* \"#utility.yul\":6574:6580   */\n      dup3\n        /* \"#utility.yul\":6563:6572   */\n      dup10\n        /* \"#utility.yul\":6559:6581   */\n      add\n        /* \"#utility.yul\":6528:6591   */\n      tag_70\n      jump\t// in\n    tag_160:\n        /* \"#utility.yul\":6518:6591   */\n      swap2\n      pop\n        /* \"#utility.yul\":6312:6601   */\n      pop\n        /* \"#utility.yul\":4977:6608   */\n      swap3\n      swap6\n      pop\n      swap3\n      swap6\n      swap1\n      swap4\n      pop\n      jump\t// out\n        /* \"#utility.yul\":6614:6740   */\n    tag_71:\n        /* \"#utility.yul\":6651:6658   */\n      0x00\n        /* \"#utility.yul\":6691:6733   */\n      0xffffffffffffffffffffffffffffffffffffffff\n        /* \"#utility.yul\":6684:6689   */\n      dup3\n        /* \"#utility.yul\":6680:6734   */\n      and\n        /* \"#utility.yul\":6669:6734   */\n      swap1\n      pop\n        /* \"#utility.yul\":6614:6740   */\n      swap2\n      swap1\n      pop\n      jump\t// out\n        /* \"#utility.yul\":6746:6842   */\n    tag_72:\n        /* \"#utility.yul\":6783:6790   */\n      0x00\n        /* \"#utility.yul\":6812:6836   */\n      tag_163\n        /* \"#utility.yul\":6830:6835   */\n      dup3\n        /* \"#utility.yul\":6812:6836   */\n      tag_71\n      jump\t// in\n    tag_163:\n        /* \"#utility.yul\":6801:6836   */\n      swap1\n      pop\n        /* \"#utility.yul\":6746:6842   */\n      swap2\n      swap1\n      pop\n      jump\t// out\n        /* \"#utility.yul\":6848:6966   */\n    tag_73:\n        /* \"#utility.yul\":6935:6959   */\n      tag_165\n        /* \"#utility.yul\":6953:6958   */\n      dup2\n        /* \"#utility.yul\":6935:6959   */\n      tag_72\n      jump\t// in\n    tag_165:\n        /* \"#utility.yul\":6930:6933   */\n      dup3\n        /* \"#utility.yul\":6923:6960   */\n      mstore\n        /* \"#utility.yul\":6848:6966   */\n      pop\n      pop\n      jump\t// out\n        /* \"#utility.yul\":6972:7194   */\n    tag_19:\n        /* \"#utility.yul\":7065:7069   */\n      0x00\n        /* \"#utility.yul\":7103:7105   */\n      0x20\n        /* \"#utility.yul\":7092:7101   */\n      dup3\n        /* \"#utility.yul\":7088:7106   */\n      add\n        /* \"#utility.yul\":7080:7106   */\n      swap1\n      pop\n        /* \"#utility.yul\":7116:7187   */\n      tag_167\n        /* \"#utility.yul\":7184:7185   */\n      0x00\n        /* \"#utility.yul\":7173:7182   */\n      dup4\n        /* \"#utility.yul\":7169:7186   */\n      add\n        /* \"#utility.yul\":7160:7166   */\n      dup5\n        /* \"#utility.yul\":7116:7187   */\n      tag_73\n      jump\t// in\n    tag_167:\n        /* \"#utility.yul\":6972:7194   */\n      swap3\n      swap2\n      pop\n      pop\n      jump\t// out\n        /* \"#utility.yul\":7200:7380   */\n    tag_74:\n        /* \"#utility.yul\":7248:7325   */\n      0x4e487b7100000000000000000000000000000000000000000000000000000000\n        /* \"#utility.yul\":7245:7246   */\n      0x00\n        /* \"#utility.yul\":7238:7326   */\n      mstore\n        /* \"#utility.yul\":7345:7349   */\n      0x22\n        /* \"#utility.yul\":7342:7343   */\n      0x04\n        /* \"#utility.yul\":7335:7350   */\n      mstore\n        /* \"#utility.yul\":7369:7373   */\n      0x24\n        /* \"#utility.yul\":7366:7367   */\n      0x00\n        /* \"#utility.yul\":7359:7374   */\n      revert\n        /* \"#utility.yul\":7386:7706   */\n    tag_21:\n        /* \"#utility.yul\":7430:7436   */\n      0x00\n        /* \"#utility.yul\":7467:7468   */\n      0x02\n        /* \"#utility.yul\":7461:7465   */\n      dup3\n        /* \"#utility.yul\":7457:7469   */\n      div\n        /* \"#utility.yul\":7447:7469   */\n      swap1\n      pop\n        /* \"#utility.yul\":7514:7515   */\n      0x01\n        /* \"#utility.yul\":7508:7512   */\n      dup3\n        /* \"#utility.yul\":7504:7516   */\n      and\n        /* \"#utility.yul\":7535:7553   */\n      dup1\n        /* \"#utility.yul\":7525:7606   */\n      tag_170\n      jumpi\n        /* \"#utility.yul\":7591:7595   */\n      0x7f\n        /* \"#utility.yul\":7583:7589   */\n      dup3\n        /* \"#utility.yul\":7579:7596   */\n      and\n        /* \"#utility.yul\":7569:7596   */\n      swap2\n      pop\n        /* \"#utility.yul\":7525:7606   */\n    tag_170:\n        /* \"#utility.yul\":7653:7655   */\n      0x20\n        /* \"#utility.yul\":7645:7651   */\n      dup3\n        /* \"#utility.yul\":7642:7656   */\n      lt\n        /* \"#utility.yul\":7622:7640   */\n      dup2\n        /* \"#utility.yul\":7619:7657   */\n      sub\n        /* \"#utility.yul\":7616:7700   */\n      tag_171\n      jumpi\n        /* \"#utility.yul\":7672:7690   */\n      tag_172\n      tag_74\n      jump\t// in\n    tag_172:\n        /* \"#utility.yul\":7616:7700   */\n    tag_171:\n        /* \"#utility.yul\":7437:7706   */\n      pop\n        /* \"#utility.yul\":7386:7706   */\n      swap2\n      swap1\n      pop\n      jump\t// out\n        /* \"#utility.yul\":7712:7874   */\n    tag_75:\n        /* \"#utility.yul\":7852:7866   */\n      0x556e617574686f72697365640000000000000000000000000000000000000000\n        /* \"#utility.yul\":7848:7849   */\n      0x00\n        /* \"#utility.yul\":7840:7846   */\n      dup3\n        /* \"#utility.yul\":7836:7850   */\n      add\n        /* \"#utility.yul\":7829:7867   */\n      mstore\n        /* \"#utility.yul\":7712:7874   */\n      pop\n      jump\t// out\n        /* \"#utility.yul\":7880:8246   */\n    tag_76:\n        /* \"#utility.yul\":8022:8025   */\n      0x00\n        /* \"#utility.yul\":8043:8110   */\n      tag_175\n        /* \"#utility.yul\":8107:8109   */\n      0x0c\n        /* \"#utility.yul\":8102:8105   */\n      dup4\n        /* \"#utility.yul\":8043:8110   */\n      tag_58\n      jump\t// in\n    tag_175:\n        /* \"#utility.yul\":8036:8110   */\n      swap2\n      pop\n        /* \"#utility.yul\":8119:8212   */\n      tag_176\n        /* \"#utility.yul\":8208:8211   */\n      dup3\n        /* \"#utility.yul\":8119:8212   */\n      tag_75\n      jump\t// in\n    tag_176:\n        /* \"#utility.yul\":8237:8239   */\n      0x20\n        /* \"#utility.yul\":8232:8235   */\n      dup3\n        /* \"#utility.yul\":8228:8240   */\n      add\n        /* \"#utility.yul\":8221:8240   */\n      swap1\n      pop\n        /* \"#utility.yul\":7880:8246   */\n      swap2\n      swap1\n      pop\n      jump\t// out\n        /* \"#utility.yul\":8252:8671   */\n    tag_44:\n        /* \"#utility.yul\":8418:8422   */\n      0x00\n        /* \"#utility.yul\":8456:8458   */\n      0x20\n        /* \"#utility.yul\":8445:8454   */\n      dup3\n        /* \"#utility.yul\":8441:8459   */\n      add\n        /* \"#utility.yul\":8433:8459   */\n      swap1\n      pop\n        /* \"#utility.yul\":8505:8514   */\n      dup2\n        /* \"#utility.yul\":8499:8503   */\n      dup2\n        /* \"#utility.yul\":8495:8515   */\n      sub\n        /* \"#utility.yul\":8491:8492   */\n      0x00\n        /* \"#utility.yul\":8480:8489   */\n      dup4\n        /* \"#utility.yul\":8476:8493   */\n      add\n        /* \"#utility.yul\":8469:8516   */\n      mstore\n        /* \"#utility.yul\":8533:8664   */\n      tag_178\n        /* \"#utility.yul\":8659:8663   */\n      dup2\n        /* \"#utility.yul\":8533:8664   */\n      tag_76\n      jump\t// in\n    tag_178:\n        /* \"#utility.yul\":8525:8664   */\n      swap1\n      pop\n        /* \"#utility.yul\":8252:8671   */\n      swap2\n      swap1\n      pop\n      jump\t// out\n        /* \"#utility.yul\":8677:8818   */\n    tag_77:\n        /* \"#utility.yul\":8726:8730   */\n      0x00\n        /* \"#utility.yul\":8749:8752   */\n      dup2\n        /* \"#utility.yul\":8741:8752   */\n      swap1\n      pop\n        /* \"#utility.yul\":8772:8775   */\n      dup2\n        /* \"#utility.yul\":8769:8770   */\n      0x00\n        /* \"#utility.yul\":8762:8776   */\n      mstore\n        /* \"#utility.yul\":8806:8810   */\n      0x20\n        /* \"#utility.yul\":8803:8804   */\n      0x00\n        /* \"#utility.yul\":8793:8811   */\n      keccak256\n        /* \"#utility.yul\":8785:8811   */\n      swap1\n      pop\n        /* \"#utility.yul\":8677:8818   */\n      swap2\n      swap1\n      pop\n      jump\t// out\n        /* \"#utility.yul\":8824:8917   */\n    tag_78:\n        /* \"#utility.yul\":8861:8867   */\n      0x00\n        /* \"#utility.yul\":8908:8910   */\n      0x20\n        /* \"#utility.yul\":8903:8905   */\n      0x1f\n        /* \"#utility.yul\":8896:8901   */\n      dup4\n        /* \"#utility.yul\":8892:8906   */\n      add\n        /* \"#utility.yul\":8888:8911   */\n      div\n        /* \"#utility.yul\":8878:8911   */\n      swap1\n      pop\n        /* \"#utility.yul\":8824:8917   */\n      swap2\n      swap1\n      pop\n      jump\t// out\n        /* \"#utility.yul\":8923:9030   */\n    tag_79:\n        /* \"#utility.yul\":8967:8975   */\n      0x00\n        /* \"#utility.yul\":9017:9022   */\n      dup3\n        /* \"#utility.yul\":9011:9015   */\n      dup3\n        /* \"#utility.yul\":9007:9023   */\n      shl\n        /* \"#utility.yul\":8986:9023   */\n      swap1\n      pop\n        /* \"#utility.yul\":8923:9030   */\n      swap3\n      swap2\n      pop\n      pop\n      jump\t// out\n        /* \"#utility.yul\":9036:9429   */\n    tag_80:\n        /* \"#utility.yul\":9105:9111   */\n      0x00\n        /* \"#utility.yul\":9155:9156   */\n      0x08\n        /* \"#utility.yul\":9143:9153   */\n      dup4\n        /* \"#utility.yul\":9139:9157   */\n      mul\n        /* \"#utility.yul\":9178:9275   */\n      tag_183\n        /* \"#utility.yul\":9208:9274   */\n      0xffffffffffffffffffffffffffffffffffffffffffffffffffffffffffffffff\n        /* \"#utility.yul\":9197:9206   */\n      dup3\n        /* \"#utility.yul\":9178:9275   */\n      tag_79\n      jump\t// in\n    tag_183:\n        /* \"#utility.yul\":9296:9335   */\n      tag_184\n        /* \"#utility.yul\":9326:9334   */\n      dup7\n        /* \"#utility.yul\":9315:9324   */\n      dup4\n        /* \"#utility.yul\":9296:9335   */\n      tag_79\n      jump\t// in\n    tag_184:\n        /* \"#utility.yul\":9284:9335   */\n      swap6\n      pop\n        /* \"#utility.yul\":9368:9372   */\n      dup1\n        /* \"#utility.yul\":9364:9373   */\n      not\n        /* \"#utility.yul\":9357:9362   */\n      dup5\n        /* \"#utility.yul\":9353:9374   */\n      and\n        /* \"#utility.yul\":9344:9374   */\n      swap4\n      pop\n        /* \"#utility.yul\":9417:9421   */\n      dup1\n        /* \"#utility.yul\":9407:9415   */\n      dup7\n        /* \"#utility.yul\":9403:9422   */\n      and\n        /* \"#utility.yul\":9396:9401   */\n      dup5\n        /* \"#utility.yul\":9393:9423   */\n      or\n        /* \"#utility.yul\":9383:9423   */\n      swap3\n      pop\n        /* \"#utility.yul\":9112:9429   */\n      pop\n      pop\n        /* \"#utility.yul\":9036:9429   */\n      swap4\n      swap3\n      pop\n      pop\n      pop\n      jump\t// out\n        /* \"#utility.yul\":9435:9495   */\n    tag_81:\n        /* \"#utility.yul\":9463:9466   */\n      0x00\n        /* \"#utility.yul\":9484:9489   */\n      dup2\n        /* \"#utility.yul\":9477:9489   */\n      swap1\n      pop\n        /* \"#utility.yul\":9435:9495   */\n      swap2\n      swap1\n      pop\n      jump\t// out\n        /* \"#utility.yul\":9501:9643   */\n    tag_82:\n        /* \"#utility.yul\":9551:9560   */\n      0x00\n        /* \"#utility.yul\":9584:9637   */\n      tag_187\n        /* \"#utility.yul\":9602:9636   */\n      tag_188\n        /* \"#utility.yul\":9611:9635   */\n      tag_189\n        /* \"#utility.yul\":9629:9634   */\n      dup5\n        /* \"#utility.yul\":9611:9635   */\n      tag_54\n      jump\t// in\n    tag_189:\n        /* \"#utility.yul\":9602:9636   */\n      tag_81\n      jump\t// in\n    tag_188:\n        /* \"#utility.yul\":9584:9637   */\n      tag_54\n      jump\t// in\n    tag_187:\n        /* \"#utility.yul\":9571:9637   */\n      swap1\n      pop\n        /* \"#utility.yul\":9501:9643   */\n      swap2\n      swap1\n      pop\n      jump\t// out\n        /* \"#utility.yul\":9649:9724   */\n    tag_83:\n        /* \"#utility.yul\":9692:9695   */\n      0x00\n        /* \"#utility.yul\":9713:9718   */\n      dup2\n        /* \"#utility.yul\":9706:9718   */\n      swap1\n      pop\n        /* \"#utility.yul\":9649:9724   */\n      swap2\n      swap1\n      pop\n      jump\t// out\n        /* \"#utility.yul\":9730:9999   */\n    tag_84:\n        /* \"#utility.yul\":9840:9879   */\n      tag_192\n        /* \"#utility.yul\":9871:9878   */\n      dup4\n        /* \"#utility.yul\":9840:9879   */\n      tag_82\n      jump\t// in\n    tag_192:\n        /* \"#utility.yul\":9901:9992   */\n      tag_193\n        /* \"#utility.yul\":9950:9991   */\n      tag_194\n        /* \"#utility.yul\":9974:9990   */\n      dup3\n        /* \"#utility.yul\":9950:9991   */\n      tag_83\n      jump\t// in\n    tag_194:\n        /* \"#utility.yul\":9942:9948   */\n      dup5\n        /* \"#utility.yul\":9935:9939   */\n      dup5\n        /* \"#utility.yul\":9929:9940   */\n      sload\n        /* \"#utility.yul\":9901:9992   */\n      tag_80\n      jump\t// in\n    tag_193:\n        /* \"#utility.yul\":9895:9899   */\n      dup3\n        /* \"#utility.yul\":9888:9993   */\n      sstore\n        /* \"#utility.yul\":9806:9999   */\n      pop\n        /* \"#utility.yul\":9730:9999   */\n      pop\n      pop\n      pop\n      jump\t// out\n        /* \"#utility.yul\":10005:10078   */\n    tag_85:\n        /* \"#utility.yul\":10050:10053   */\n      0x00\n        /* \"#utility.yul\":10005:10078   */\n      swap1\n      jump\t// out\n        /* \"#utility.yul\":10084:10273   */\n    tag_86:\n        /* \"#utility.yul\":10161:10193   */\n      tag_197\n      tag_85\n      jump\t// in\n    tag_197:\n        /* \"#utility.yul\":10202:10267   */\n      tag_198\n        /* \"#utility.yul\":10260:10266   */\n      dup2\n        /* \"#utility.yul\":10252:10258   */\n      dup5\n        /* \"#utility.yul\":10246:10250   */\n      dup5\n        /* \"#utility.yul\":10202:10267   */\n      tag_84\n      jump\t// in\n    tag_198:\n        /* \"#utility.yul\":10137:10273   */\n      pop\n        /* \"#utility.yul\":10084:10273   */\n      pop\n      pop\n      jump\t// out\n        /* \"#utility.yul\":10279:10465   */\n    tag_87:\n        /* \"#utility.yul\":10339:10459   */\n    tag_200:\n        /* \"#utility.yul\":10356:10359   */\n      dup2\n        /* \"#utility.yul\":10349:10354   */\n      dup2\n        /* \"#utility.yul\":10346:10360   */\n      lt\n        /* \"#utility.yul\":10339:10459   */\n      iszero\n      tag_202\n      jumpi\n        /* \"#utility.yul\":10410:10449   */\n      tag_203\n        /* \"#utility.yul\":10447:10448   */\n      0x00\n        /* \"#utility.yul\":10440:10445   */\n      dup3\n        /* \"#utility.yul\":10410:10449   */\n      tag_86\n      jump\t// in\n    tag_203:\n        /* \"#utility.yul\":10383:10384   */\n      0x01\n        /* \"#utility.yul\":10376:10381   */\n      dup2\n        /* \"#utility.yul\":10372:10385   */\n      add\n        /* \"#utility.yul\":10363:10385   */\n      swap1\n      pop\n        /* \"#utility.yul\":10339:10459   */\n      jump(tag_200)\n    tag_202:\n        /* \"#utility.yul\":10279:10465   */\n      pop\n      pop\n      jump\t// out\n        /* \"#utility.yul\":10471:11014   */\n    tag_88:\n        /* \"#utility.yul\":10572:10574   */\n      0x1f\n        /* \"#utility.yul\":10567:10570   */\n      dup3\n        /* \"#utility.yul\":10564:10575   */\n      gt\n        /* \"#utility.yul\":10561:11007   */\n      iszero\n      tag_205\n      jumpi\n        /* \"#utility.yul\":10606:10644   */\n      tag_206\n        /* \"#utility.yul\":10638:10643   */\n      dup2\n        /* \"#utility.yul\":10606:10644   */\n      tag_77\n      jump\t// in\n    tag_206:\n        /* \"#utility.yul\":10690:10719   */\n      tag_207\n        /* \"#utility.yul\":10708:10718   */\n      dup5\n        /* \"#utility.yul\":10690:10719   */\n      tag_78\n      jump\t// in\n    tag_207:\n        /* \"#utility.yul\":10680:10688   */\n      dup2\n        /* \"#utility.yul\":10676:10720   */\n      add\n        /* \"#utility.yul\":10873:10875   */\n      0x20\n        /* \"#utility.yul\":10861:10871   */\n      dup6\n        /* \"#utility.yul\":10858:10876   */\n      lt\n        /* \"#utility.yul\":10855:10904   */\n      iszero\n      tag_208\n      jumpi\n        /* \"#utility.yul\":10894:10902   */\n      dup2\n        /* \"#utility.yul\":10879:10902   */\n      swap1\n      pop\n        /* \"#utility.yul\":10855:10904   */\n    tag_208:\n        /* \"#utility.yul\":10917:10997   */\n      tag_209\n        /* \"#utility.yul\":10973:10995   */\n      tag_210\n        /* \"#utility.yul\":10991:10994   */\n      dup6\n        /* \"#utility.yul\":10973:10995   */\n      tag_78\n      jump\t// in\n    tag_210:\n        /* \"#utility.yul\":10963:10971   */\n      dup4\n        /* \"#utility.yul\":10959:10996   */\n      add\n        /* \"#utility.yul\":10946:10957   */\n      dup3\n        /* \"#utility.yul\":10917:10997   */\n      tag_87\n      jump\t// in\n    tag_209:\n        /* \"#utility.yul\":10576:11007   */\n      pop\n      pop\n        /* \"#utility.yul\":10561:11007   */\n    tag_205:\n        /* \"#utility.yul\":10471:11014   */\n      pop\n      pop\n      pop\n      jump\t// out\n        /* \"#utility.yul\":11020:11137   */\n    tag_89:\n        /* \"#utility.yul\":11074:11082   */\n      0x00\n        /* \"#utility.yul\":11124:11129   */\n      dup3\n        /* \"#utility.yul\":11118:11122   */\n      dup3\n        /* \"#utility.yul\":11114:11130   */\n      shr\n        /* \"#utility.yul\":11093:11130   */\n      swap1\n      pop\n        /* \"#utility.yul\":11020:11137   */\n      swap3\n      swap2\n      pop\n      pop\n      jump\t// out\n        /* \"#utility.yul\":11143:11312   */\n    tag_90:\n        /* \"#utility.yul\":11187:11193   */\n      0x00\n        /* \"#utility.yul\":11220:11271   */\n      tag_213\n        /* \"#utility.yul\":11268:11269   */\n      0x00\n        /* \"#utility.yul\":11264:11270   */\n      not\n        /* \"#utility.yul\":11256:11261   */\n      dup5\n        /* \"#utility.yul\":11253:11254   */\n      0x08\n        /* \"#utility.yul\":11249:11262   */\n      mul\n        /* \"#utility.yul\":11220:11271   */\n      tag_89\n      jump\t// in\n    tag_213:\n        /* \"#utility.yul\":11216:11272   */\n      not\n        /* \"#utility.yul\":11301:11305   */\n      dup1\n        /* \"#utility.yul\":11295:11299   */\n      dup4\n        /* \"#utility.yul\":11291:11306   */\n      and\n        /* \"#utility.yul\":11281:11306   */\n      swap2\n      pop\n        /* \"#utility.yul\":11194:11312   */\n      pop\n        /* \"#utility.yul\":11143:11312   */\n      swap3\n      swap2\n      pop\n      pop\n      jump\t// out\n        /* \"#utility.yul\":11317:11612   */\n    tag_91:\n        /* \"#utility.yul\":11393:11397   */\n      0x00\n        /* \"#utility.yul\":11539:11568   */\n      tag_215\n        /* \"#utility.yul\":11564:11567   */\n      dup4\n        /* \"#utility.yul\":11558:11562   */\n      dup4\n        /* \"#utility.yul\":11539:11568   */\n      tag_90\n      jump\t// in\n    tag_215:\n        /* \"#utility.yul\":11531:11568   */\n      swap2\n      pop\n        /* \"#utility.yul\":11601:11604   */\n      dup3\n        /* \"#utility.yul\":11598:11599   */\n      0x02\n        /* \"#utility.yul\":11594:11605   */\n      mul\n        /* \"#utility.yul\":11588:11592   */\n      dup3\n        /* \"#utility.yul\":11585:11606   */\n      or\n        /* \"#utility.yul\":11577:11606   */\n      swap1\n      pop\n        /* \"#utility.yul\":11317:11612   */\n      swap3\n      swap2\n      pop\n      pop\n      jump\t// out\n        /* \"#utility.yul\":11617:13012   */\n    tag_47:\n        /* \"#utility.yul\":11734:11771   */\n      tag_217\n        /* \"#utility.yul\":11767:11770   */\n      dup3\n        /* \"#utility.yul\":11734:11771   */\n      tag_57\n      jump\t// in\n    tag_217:\n        /* \"#utility.yul\":11836:11854   */\n      0xffffffffffffffff\n        /* \"#utility.yul\":11828:11834   */\n      dup2\n        /* \"#utility.yul\":11825:11855   */\n      gt\n        /* \"#utility.yul\":11822:11878   */\n      iszero\n      tag_218\n      jumpi\n        /* \"#utility.yul\":11858:11876   */\n      tag_219\n      tag_64\n      jump\t// in\n    tag_219:\n        /* \"#utility.yul\":11822:11878   */\n    tag_218:\n        /* \"#utility.yul\":11902:11940   */\n      tag_220\n        /* \"#utility.yul\":11934:11938   */\n      dup3\n        /* \"#utility.yul\":11928:11939   */\n      sload\n        /* \"#utility.yul\":11902:11940   */\n      tag_21\n      jump\t// in\n    tag_220:\n        /* \"#utility.yul\":11987:12054   */\n      tag_221\n        /* \"#utility.yul\":12047:12053   */\n      dup3\n        /* \"#utility.yul\":12039:12045   */\n      dup3\n        /* \"#utility.yul\":12033:12037   */\n      dup6\n        /* \"#utility.yul\":11987:12054   */\n      tag_88\n      jump\t// in\n    tag_221:\n        /* \"#utility.yul\":12081:12082   */\n      0x00\n        /* \"#utility.yul\":12105:12109   */\n      0x20\n        /* \"#utility.yul\":12092:12109   */\n      swap1\n      pop\n        /* \"#utility.yul\":12137:12139   */\n      0x1f\n        /* \"#utility.yul\":12129:12135   */\n      dup4\n        /* \"#utility.yul\":12126:12140   */\n      gt\n        /* \"#utility.yul\":12154:12155   */\n      0x01\n        /* \"#utility.yul\":12149:12767   */\n      dup2\n      eq\n      tag_223\n      jumpi\n        /* \"#utility.yul\":12811:12812   */\n      0x00\n        /* \"#utility.yul\":12828:12834   */\n      dup5\n        /* \"#utility.yul\":12825:12902   */\n      iszero\n      tag_224\n      jumpi\n        /* \"#utility.yul\":12877:12886   */\n      dup3\n        /* \"#utility.yul\":12872:12875   */\n      dup8\n        /* \"#utility.yul\":12868:12887   */\n      add\n        /* \"#utility.yul\":12862:12888   */\n      mload\n        /* \"#utility.yul\":12853:12888   */\n      swap1\n      pop\n        /* \"#utility.yul\":12825:12902   */\n    tag_224:\n        /* \"#utility.yul\":12928:12995   */\n      tag_225\n        /* \"#utility.yul\":12988:12994   */\n      dup6\n        /* \"#utility.yul\":12981:12986   */\n      dup3\n        /* \"#utility.yul\":12928:12995   */\n      tag_91\n      jump\t// in\n    tag_225:\n        /* \"#utility.yul\":12922:12926   */\n      dup7\n        /* \"#utility.yul\":12915:12996   */\n      sstore\n        /* \"#utility.yul\":12784:13006   */\n      pop\n        /* \"#utility.yul\":12119:13006   */\n      jump(tag_222)\n        /* \"#utility.yul\":12149:12767   */\n    tag_223:\n        /* \"#utility.yul\":12201:12205   */\n      0x1f\n        /* \"#utility.yul\":12197:12206   */\n      not\n        /* \"#utility.yul\":12189:12195   */\n      dup5\n        /* \"#utility.yul\":12185:12207   */\n      and\n        /* \"#utility.yul\":12235:12272   */\n      tag_226\n        /* \"#utility.yul\":12267:12271   */\n      dup7\n        /* \"#utility.yul\":12235:12272   */\n      tag_77\n      jump\t// in\n    tag_226:\n        /* \"#utility.yul\":12294:12295   */\n      0x00\n        /* \"#utility.yul\":12308:12516   */\n    tag_227:\n        /* \"#utility.yul\":12322:12329   */\n      dup3\n        /* \"#utility.yul\":12319:12320   */\n      dup2\n        /* \"#utility.yul\":12316:12330   */\n      lt\n        /* \"#utility.yul\":12308:12516   */\n      iszero\n      tag_229\n      jumpi\n        /* \"#utility.yul\":12401:12410   */\n      dup5\n        /* \"#utility.yul\":12396:12399   */\n      dup10\n        /* \"#utility.yul\":12392:12411   */\n      add\n        /* \"#utility.yul\":12386:12412   */\n      mload\n        /* \"#utility.yul\":12378:12384   */\n      dup3\n        /* \"#utility.yul\":12371:12413   */\n      sstore\n        /* \"#utility.yul\":12452:12453   */\n      0x01\n        /* \"#utility.yul\":12444:12450   */\n      dup3\n        /* \"#utility.yul\":12440:12454   */\n      add\n        /* \"#utility.yul\":12430:12454   */\n      swap2\n      pop\n        /* \"#utility.yul\":12499:12501   */\n      0x20\n        /* \"#utility.yul\":12488:12497   */\n      dup6\n        /* \"#utility.yul\":12484:12502   */\n      add\n        /* \"#utility.yul\":12471:12502   */\n      swap5\n      pop\n        /* \"#utility.yul\":12345:12349   */\n      0x20\n        /* \"#utility.yul\":12342:12343   */\n      dup2\n        /* \"#utility.yul\":12338:12350   */\n      add\n        /* \"#utility.yul\":12333:12350   */\n      swap1\n      pop\n        /* \"#utility.yul\":12308:12516   */\n      jump(tag_227)\n    tag_229:\n        /* \"#utility.yul\":12544:12550   */\n      dup7\n        /* \"#utility.yul\":12535:12542   */\n      dup4\n        /* \"#utility.yul\":12532:12551   */\n      lt\n        /* \"#utility.yul\":12529:12708   */\n      iszero\n      tag_230\n      jumpi\n        /* \"#utility.yul\":12602:12611   */\n      dup5\n        /* \"#utility.yul\":12597:12600   */\n      dup10\n        /* \"#utility.yul\":12593:12612   */\n      add\n        /* \"#utility.yul\":12587:12613   */\n      mload\n        /* \"#utility.yul\":12645:12693   */\n      tag_231\n        /* \"#utility.yul\":12687:12691   */\n      0x1f\n        /* \"#utility.yul\":12679:12685   */\n      dup10\n        /* \"#utility.yul\":12675:12692   */\n      and\n        /* \"#utility.yul\":12664:12673   */\n      dup3\n        /* \"#utility.yul\":12645:12693   */\n      tag_90\n      jump\t// in\n    tag_231:\n        /* \"#utility.yul\":12637:12643   */\n      dup4\n        /* \"#utility.yul\":12630:12694   */\n      sstore\n        /* \"#utility.yul\":12552:12708   */\n      pop\n        /* \"#utility.yul\":12529:12708   */\n    tag_230:\n        /* \"#utility.yul\":12754:12755   */\n      0x01\n        /* \"#utility.yul\":12750:12751   */\n      0x02\n        /* \"#utility.yul\":12742:12748   */\n      dup9\n        /* \"#utility.yul\":12738:12752   */\n      mul\n        /* \"#utility.yul\":12734:12756   */\n      add\n        /* \"#utility.yul\":12728:12732   */\n      dup9\n        /* \"#utility.yul\":12721:12757   */\n      sstore\n        /* \"#utility.yul\":12156:12767   */\n      pop\n      pop\n      pop\n        /* \"#utility.yul\":12119:13006   */\n    tag_222:\n      pop\n        /* \"#utility.yul\":11709:13012   */\n      pop\n      pop\n      pop\n        /* \"#utility.yul\":11617:13012   */\n      pop\n      pop\n      jump\t// out\n\n    auxdata: 0xa26469706673582212202ed31140691a3352bfd9ecf30b77198b8f5e0df594db7d4190fe627a4b713da964736f6c634300081a0033\n}\n",
				"bytecode": {
					"linkReferences": {},
					"object": "6080604052348015600e575f80fd5b50335f806101000a81548173ffffffffffffffffffffffffffffffffffffffff021916908373ffffffffffffffffffffffffffffffffffffffff160217905550610b468061005b5f395ff3fe608060405234801561000f575f80fd5b506004361061003f575f3560e01c8063663b3e2214610043578063d1e7be2614610076578063f851a44014610092575b5f80fd5b61005d6004803603810190610058919061047a565b6100b0565b60405161006d9493929190610515565b60405180910390f35b610090600480360381019061008b91906106a0565b6102f4565b005b61009a610413565b6040516100a791906107c6565b60405180910390f35b6001602052805f5260405f205f91509050805f0180546100cf9061080c565b80601f01602080910402602001604051908101604052809291908181526020018280546100fb9061080c565b80156101465780601f1061011d57610100808354040283529160200191610146565b820191905f5260205f20905b81548152906001019060200180831161012957829003601f168201915b50505050509080600101805461015b9061080c565b80601f01602080910402602001604051908101604052809291908181526020018280546101879061080c565b80156101d25780601f106101a9576101008083540402835291602001916101d2565b820191905f5260205f20905b8154815290600101906020018083116101b557829003601f168201915b5050505050908060020180546101e79061080c565b80601f01602080910402602001604051908101604052809291908181526020018280546102139061080c565b801561025e5780601f106102355761010080835404028352916020019161025e565b820191905f5260205f20905b81548152906001019060200180831161024157829003601f168201915b5050505050908060030180546102739061080c565b80601f016020809104026020016040519081016040528092919081815260200182805461029f9061080c565b80156102ea5780601f106102c1576101008083540402835291602001916102ea565b820191905f5260205f20905b8154815290600101906020018083116102cd57829003601f168201915b5050505050905084565b5f8054906101000a900473ffffffffffffffffffffffffffffffffffffffff1673ffffffffffffffffffffffffffffffffffffffff163373ffffffffffffffffffffffffffffffffffffffff1614610381576040517f08c379a000000000000000000000000000000000000000000000000000000000815260040161037890610886565b60405180910390fd5b60405180608001604052808581526020018481526020018381526020018281525060015f8781526020019081526020015f205f820151815f0190816103c69190610a41565b5060208201518160010190816103dc9190610a41565b5060408201518160020190816103f29190610a41565b5060608201518160030190816104089190610a41565b509050505050505050565b5f8054906101000a900473ffffffffffffffffffffffffffffffffffffffff1681565b5f604051905090565b5f80fd5b5f80fd5b5f819050919050565b61045981610447565b8114610463575f80fd5b50565b5f8135905061047481610450565b92915050565b5f6020828403121561048f5761048e61043f565b5b5f61049c84828501610466565b91505092915050565b5f81519050919050565b5f82825260208201905092915050565b8281835e5f83830152505050565b5f601f19601f8301169050919050565b5f6104e7826104a5565b6104f181856104af565b93506105018185602086016104bf565b61050a816104cd565b840191505092915050565b5f6080820190508181035f83015261052d81876104dd565b9050818103602083015261054181866104dd565b9050818103604083015261055581856104dd565b9050818103606083015261056981846104dd565b905095945050505050565b5f80fd5b5f80fd5b7f4e487b71000000000000000000000000000000000000000000000000000000005f52604160045260245ffd5b6105b2826104cd565b810181811067ffffffffffffffff821117156105d1576105d061057c565b5b80604052505050565b5f6105e3610436565b90506105ef82826105a9565b919050565b5f67ffffffffffffffff82111561060e5761060d61057c565b5b610617826104cd565b9050602081019050919050565b828183375f83830152505050565b5f61064461063f846105f4565b6105da565b9050828152602081018484840111156106605761065f610578565b5b61066b848285610624565b509392505050565b5f82601f83011261068757610686610574565b5b8135610697848260208601610632565b91505092915050565b5f805f805f60a086880312156106b9576106b861043f565b5b5f6106c688828901610466565b955050602086013567ffffffffffffffff8111156106e7576106e6610443565b5b6106f388828901610673565b945050604086013567ffffffffffffffff81111561071457610713610443565b5b61072088828901610673565b935050606086013567ffffffffffffffff81111561074157610740610443565b5b61074d88828901610673565b925050608086013567ffffffffffffffff81111561076e5761076d610443565b5b61077a88828901610673565b9150509295509295909350565b5f73ffffffffffffffffffffffffffffffffffffffff82169050919050565b5f6107b082610787565b9050919050565b6107c0816107a6565b82525050565b5f6020820190506107d95f8301846107b7565b92915050565b7f4e487b71000000000000000000000000000000000000000000000000000000005f52602260045260245ffd5b5f600282049050600182168061082357607f821691505b602082108103610836576108356107df565b5b50919050565b7f556e617574686f726973656400000000000000000000000000000000000000005f82015250565b5f610870600c836104af565b915061087b8261083c565b602082019050919050565b5f6020820190508181035f83015261089d81610864565b9050919050565b5f819050815f5260205f209050919050565b5f6020601f8301049050919050565b5f82821b905092915050565b5f600883026109007fffffffffffffffffffffffffffffffffffffffffffffffffffffffffffffffff826108c5565b61090a86836108c5565b95508019841693508086168417925050509392505050565b5f819050919050565b5f61094561094061093b84610447565b610922565b610447565b9050919050565b5f819050919050565b61095e8361092b565b61097261096a8261094c565b8484546108d1565b825550505050565b5f90565b61098661097a565b610991818484610955565b505050565b5b818110156109b4576109a95f8261097e565b600181019050610997565b5050565b601f8211156109f9576109ca816108a4565b6109d3846108b6565b810160208510156109e2578190505b6109f66109ee856108b6565b830182610996565b50505b505050565b5f82821c905092915050565b5f610a195f19846008026109fe565b1980831691505092915050565b5f610a318383610a0a565b9150826002028217905092915050565b610a4a826104a5565b67ffffffffffffffff811115610a6357610a6261057c565b5b610a6d825461080c565b610a788282856109b8565b5f60209050601f831160018114610aa9575f8415610a97578287015190505b610aa18582610a26565b865550610b08565b601f198416610ab7866108a4565b5f5b82811015610ade57848901518255600182019150602085019450602081019050610ab9565b86831015610afb5784890151610af7601f891682610a0a565b8355505b6001600288020188555050505b50505050505056fea26469706673582212202ed31140691a3352bfd9ecf30b77198b8f5e0df594db7d4190fe627a4b713da964736f6c634300081a0033",
					"opcodes": "PUSH1 0x80 PUSH1 0x40 MSTORE CALLVALUE DUP1 ISZERO PUSH1 0xE JUMPI PUSH0 DUP1 REVERT JUMPDEST POP CALLER PUSH0 DUP1 PUSH2 0x100 EXP DUP2 SLOAD DUP2 PUSH20 0xFFFFFFFFFFFFFFFFFFFFFFFFFFFFFFFFFFFFFFFF MUL NOT AND SWAP1 DUP4 PUSH20 0xFFFFFFFFFFFFFFFFFFFFFFFFFFFFFFFFFFFFFFFF AND MUL OR SWAP1 SSTORE POP PUSH2 0xB46 DUP1 PUSH2 0x5B PUSH0 CODECOPY PUSH0 RETURN INVALID PUSH1 0x80 PUSH1 0x40 MSTORE CALLVALUE DUP1 ISZERO PUSH2 0xF JUMPI PUSH0 DUP1 REVERT JUMPDEST POP PUSH1 0x4 CALLDATASIZE LT PUSH2 0x3F JUMPI PUSH0 CALLDATALOAD PUSH1 0xE0 SHR DUP1 PUSH4 0x663B3E22 EQ PUSH2 0x43 JUMPI DUP1 PUSH4 0xD1E7BE26 EQ PUSH2 0x76 JUMPI DUP1 PUSH4 0xF851A440 EQ PUSH2 0x92 JUMPI JUMPDEST PUSH0 DUP1 REVERT JUMPDEST PUSH2 0x5D PUSH1 0x4 DUP1 CALLDATASIZE SUB DUP2 ADD SWAP1 PUSH2 0x58 SWAP2 SWAP1 PUSH2 0x47A JUMP JUMPDEST PUSH2 0xB0 JUMP JUMPDEST PUSH1 0x40 MLOAD PUSH2 0x6D SWAP5 SWAP4 SWAP3 SWAP2 SWAP1 PUSH2 0x515 JUMP JUMPDEST PUSH1 0x40 MLOAD DUP1 SWAP2 SUB SWAP1 RETURN JUMPDEST PUSH2 0x90 PUSH1 0x4 DUP1 CALLDATASIZE SUB DUP2 ADD SWAP1 PUSH2 0x8B SWAP2 SWAP1 PUSH2 0x6A0 JUMP JUMPDEST PUSH2 0x2F4 JUMP JUMPDEST STOP JUMPDEST PUSH2 0x9A PUSH2 0x413 JUMP JUMPDEST PUSH1 0x40 MLOAD PUSH2 0xA7 SWAP2 SWAP1 PUSH2 0x7C6 JUMP JUMPDEST PUSH1 0x40 MLOAD DUP1 SWAP2 SUB SWAP1 RETURN JUMPDEST PUSH1 0x1 PUSH1 0x20 MSTORE DUP1 PUSH0 MSTORE PUSH1 0x40 PUSH0 KECCAK256 PUSH0 SWAP2 POP SWAP1 POP DUP1 PUSH0 ADD DUP1 SLOAD PUSH2 0xCF SWAP1 PUSH2 0x80C JUMP JUMPDEST DUP1 PUSH1 0x1F ADD PUSH1 0x20 DUP1 SWAP2 DIV MUL PUSH1 0x20 ADD PUSH1 0x40 MLOAD SWAP1 DUP2 ADD PUSH1 0x40 MSTORE DUP1 SWAP3 SWAP2 SWAP1 DUP2 DUP2 MSTORE PUSH1 0x20 ADD DUP3 DUP1 SLOAD PUSH2 0xFB SWAP1 PUSH2 0x80C JUMP JUMPDEST DUP1 ISZERO PUSH2 0x146 JUMPI DUP1 PUSH1 0x1F LT PUSH2 0x11D JUMPI PUSH2 0x100 DUP1 DUP4 SLOAD DIV MUL DUP4 MSTORE SWAP2 PUSH1 0x20 ADD SWAP2 PUSH2 0x146 JUMP JUMPDEST DUP3 ADD SWAP2 SWAP1 PUSH0 MSTORE PUSH1 0x20 PUSH0 KECCAK256 SWAP1 JUMPDEST DUP2 SLOAD DUP2 MSTORE SWAP1 PUSH1 0x1 ADD SWAP1 PUSH1 0x20 ADD DUP1 DUP4 GT PUSH2 0x129 JUMPI DUP3 SWAP1 SUB PUSH1 0x1F AND DUP3 ADD SWAP2 JUMPDEST POP POP POP POP POP SWAP1 DUP1 PUSH1 0x1 ADD DUP1 SLOAD PUSH2 0x15B SWAP1 PUSH2 0x80C JUMP JUMPDEST DUP1 PUSH1 0x1F ADD PUSH1 0x20 DUP1 SWAP2 DIV MUL PUSH1 0x20 ADD PUSH1 0x40 MLOAD SWAP1 DUP2 ADD PUSH1 0x40 MSTORE DUP1 SWAP3 SWAP2 SWAP1 DUP2 DUP2 MSTORE PUSH1 0x20 ADD DUP3 DUP1 SLOAD PUSH2 0x187 SWAP1 PUSH2 0x80C JUMP JUMPDEST DUP1 ISZERO PUSH2 0x1D2 JUMPI DUP1 PUSH1 0x1F LT PUSH2 0x1A9 JUMPI PUSH2 0x100 DUP1 DUP4 SLOAD DIV MUL DUP4 MSTORE SWAP2 PUSH1 0x20 ADD SWAP2 PUSH2 0x1D2 JUMP JUMPDEST DUP3 ADD SWAP2 SWAP1 PUSH0 MSTORE PUSH1 0x20 PUSH0 KECCAK256 SWAP1 JUMPDEST DUP2 SLOAD DUP2 MSTORE SWAP1 PUSH1 0x1 ADD SWAP1 PUSH1 0x20 ADD DUP1 DUP4 GT PUSH2 0x1B5 JUMPI DUP3 SWAP1 SUB PUSH1 0x1F AND DUP3 ADD SWAP2 JUMPDEST POP POP POP POP POP SWAP1 DUP1 PUSH1 0x2 ADD DUP1 SLOAD PUSH2 0x1E7 SWAP1 PUSH2 0x80C JUMP JUMPDEST DUP1 PUSH1 0x1F ADD PUSH1 0x20 DUP1 SWAP2 DIV MUL PUSH1 0x20 ADD PUSH1 0x40 MLOAD SWAP1 DUP2 ADD PUSH1 0x40 MSTORE DUP1 SWAP3 SWAP2 SWAP1 DUP2 DUP2 MSTORE PUSH1 0x20 ADD DUP3 DUP1 SLOAD PUSH2 0x213 SWAP1 PUSH2 0x80C JUMP JUMPDEST DUP1 ISZERO PUSH2 0x25E JUMPI DUP1 PUSH1 0x1F LT PUSH2 0x235 JUMPI PUSH2 0x100 DUP1 DUP4 SLOAD DIV MUL DUP4 MSTORE SWAP2 PUSH1 0x20 ADD SWAP2 PUSH2 0x25E JUMP JUMPDEST DUP3 ADD SWAP2 SWAP1 PUSH0 MSTORE PUSH1 0x20 PUSH0 KECCAK256 SWAP1 JUMPDEST DUP2 SLOAD DUP2 MSTORE SWAP1 PUSH1 0x1 ADD SWAP1 PUSH1 0x20 ADD DUP1 DUP4 GT PUSH2 0x241 JUMPI DUP3 SWAP1 SUB PUSH1 0x1F AND DUP3 ADD SWAP2 JUMPDEST POP POP POP POP POP SWAP1 DUP1 PUSH1 0x3 ADD DUP1 SLOAD PUSH2 0x273 SWAP1 PUSH2 0x80C JUMP JUMPDEST DUP1 PUSH1 0x1F ADD PUSH1 0x20 DUP1 SWAP2 DIV MUL PUSH1 0x20 ADD PUSH1 0x40 MLOAD SWAP1 DUP2 ADD PUSH1 0x40 MSTORE DUP1 SWAP3 SWAP2 SWAP1 DUP2 DUP2 MSTORE PUSH1 0x20 ADD DUP3 DUP1 SLOAD PUSH2 0x29F SWAP1 PUSH2 0x80C JUMP JUMPDEST DUP1 ISZERO PUSH2 0x2EA JUMPI DUP1 PUSH1 0x1F LT PUSH2 0x2C1 JUMPI PUSH2 0x100 DUP1 DUP4 SLOAD DIV MUL DUP4 MSTORE SWAP2 PUSH1 0x20 ADD SWAP2 PUSH2 0x2EA JUMP JUMPDEST DUP3 ADD SWAP2 SWAP1 PUSH0 MSTORE PUSH1 0x20 PUSH0 KECCAK256 SWAP1 JUMPDEST DUP2 SLOAD DUP2 MSTORE SWAP1 PUSH1 0x1 ADD SWAP1 PUSH1 0x20 ADD DUP1 DUP4 GT PUSH2 0x2CD JUMPI DUP3 SWAP1 SUB PUSH1 0x1F AND DUP3 ADD SWAP2 JUMPDEST POP POP POP POP POP SWAP1 POP DUP5 JUMP JUMPDEST PUSH0 DUP1 SLOAD SWAP1 PUSH2 0x100 EXP SWAP1 DIV PUSH20 0xFFFFFFFFFFFFFFFFFFFFFFFFFFFFFFFFFFFFFFFF AND PUSH20 0xFFFFFFFFFFFFFFFFFFFFFFFFFFFFFFFFFFFFFFFF AND CALLER PUSH20 0xFFFFFFFFFFFFFFFFFFFFFFFFFFFFFFFFFFFFFFFF AND EQ PUSH2 0x381 JUMPI PUSH1 0x40 MLOAD PUSH32 0x8C379A000000000000000000000000000000000000000000000000000000000 DUP2 MSTORE PUSH1 0x4 ADD PUSH2 0x378 SWAP1 PUSH2 0x886 JUMP JUMPDEST PUSH1 0x40 MLOAD DUP1 SWAP2 SUB SWAP1 REVERT JUMPDEST PUSH1 0x40 MLOAD DUP1 PUSH1 0x80 ADD PUSH1 0x40 MSTORE DUP1 DUP6 DUP2 MSTORE PUSH1 0x20 ADD DUP5 DUP2 MSTORE PUSH1 0x20 ADD DUP4 DUP2 MSTORE PUSH1 0x20 ADD DUP3 DUP2 MSTORE POP PUSH1 0x1 PUSH0 DUP8 DUP2 MSTORE PUSH1 0x20 ADD SWAP1 DUP2 MSTORE PUSH1 0x20 ADD PUSH0 KECCAK256 PUSH0 DUP3 ADD MLOAD DUP2 PUSH0 ADD SWAP1 DUP2 PUSH2 0x3C6 SWAP2 SWAP1 PUSH2 0xA41 JUMP JUMPDEST POP PUSH1 0x20 DUP3 ADD MLOAD DUP2 PUSH1 0x1 ADD SWAP1 DUP2 PUSH2 0x3DC SWAP2 SWAP1 PUSH2 0xA41 JUMP JUMPDEST POP PUSH1 0x40 DUP3 ADD MLOAD DUP2 PUSH1 0x2 ADD SWAP1 DUP2 PUSH2 0x3F2 SWAP2 SWAP1 PUSH2 0xA41 JUMP JUMPDEST POP PUSH1 0x60 DUP3 ADD MLOAD DUP2 PUSH1 0x3 ADD SWAP1 DUP2 PUSH2 0x408 SWAP2 SWAP1 PUSH2 0xA41 JUMP JUMPDEST POP SWAP1 POP POP POP POP POP POP POP JUMP JUMPDEST PUSH0 DUP1 SLOAD SWAP1 PUSH2 0x100 EXP SWAP1 DIV PUSH20 0xFFFFFFFFFFFFFFFFFFFFFFFFFFFFFFFFFFFFFFFF AND DUP2 JUMP JUMPDEST PUSH0 PUSH1 0x40 MLOAD SWAP1 POP SWAP1 JUMP JUMPDEST PUSH0 DUP1 REVERT JUMPDEST PUSH0 DUP1 REVERT JUMPDEST PUSH0 DUP2 SWAP1 POP SWAP2 SWAP1 POP JUMP JUMPDEST PUSH2 0x459 DUP2 PUSH2 0x447 JUMP JUMPDEST DUP2 EQ PUSH2 0x463 JUMPI PUSH0 DUP1 REVERT JUMPDEST POP JUMP JUMPDEST PUSH0 DUP2 CALLDATALOAD SWAP1 POP PUSH2 0x474 DUP2 PUSH2 0x450 JUMP JUMPDEST SWAP3 SWAP2 POP POP JUMP JUMPDEST PUSH0 PUSH1 0x20 DUP3 DUP5 SUB SLT ISZERO PUSH2 0x48F JUMPI PUSH2 0x48E PUSH2 0x43F JUMP JUMPDEST JUMPDEST PUSH0 PUSH2 0x49C DUP5 DUP3 DUP6 ADD PUSH2 0x466 JUMP JUMPDEST SWAP2 POP POP SWAP3 SWAP2 POP POP JUMP JUMPDEST PUSH0 DUP2 MLOAD SWAP1 POP SWAP2 SWAP1 POP JUMP JUMPDEST PUSH0 DUP3 DUP3 MSTORE PUSH1 0x20 DUP3 ADD SWAP1 POP SWAP3 SWAP2 POP POP JUMP JUMPDEST DUP3 DUP2 DUP4 MCOPY PUSH0 DUP4 DUP4 ADD MSTORE POP POP POP JUMP JUMPDEST PUSH0 PUSH1 0x1F NOT PUSH1 0x1F DUP4 ADD AND SWAP1 POP SWAP2 SWAP1 POP JUMP JUMPDEST PUSH0 PUSH2 0x4E7 DUP3 PUSH2 0x4A5 JUMP JUMPDEST PUSH2 0x4F1 DUP2 DUP6 PUSH2 0x4AF JUMP JUMPDEST SWAP4 POP PUSH2 0x501 DUP2 DUP6 PUSH1 0x20 DUP7 ADD PUSH2 0x4BF JUMP JUMPDEST PUSH2 0x50A DUP2 PUSH2 0x4CD JUMP JUMPDEST DUP5 ADD SWAP2 POP POP SWAP3 SWAP2 POP POP JUMP JUMPDEST PUSH0 PUSH1 0x80 DUP3 ADD SWAP1 POP DUP2 DUP2 SUB PUSH0 DUP4 ADD MSTORE PUSH2 0x52D DUP2 DUP8 PUSH2 0x4DD JUMP JUMPDEST SWAP1 POP DUP2 DUP2 SUB PUSH1 0x20 DUP4 ADD MSTORE PUSH2 0x541 DUP2 DUP7 PUSH2 0x4DD JUMP JUMPDEST SWAP1 POP DUP2 DUP2 SUB PUSH1 0x40 DUP4 ADD MSTORE PUSH2 0x555 DUP2 DUP6 PUSH2 0x4DD JUMP JUMPDEST SWAP1 POP DUP2 DUP2 SUB PUSH1 0x60 DUP4 ADD MSTORE PUSH2 0x569 DUP2 DUP5 PUSH2 0x4DD JUMP JUMPDEST SWAP1 POP SWAP6 SWAP5 POP POP POP POP POP JUMP JUMPDEST PUSH0 DUP1 REVERT JUMPDEST PUSH0 DUP1 REVERT JUMPDEST PUSH32 0x4E487B7100000000000000000000000000000000000000000000000000000000 PUSH0 MSTORE PUSH1 0x41 PUSH1 0x4 MSTORE PUSH1 0x24 PUSH0 REVERT JUMPDEST PUSH2 0x5B2 DUP3 PUSH2 0x4CD JUMP JUMPDEST DUP2 ADD DUP2 DUP2 LT PUSH8 0xFFFFFFFFFFFFFFFF DUP3 GT OR ISZERO PUSH2 0x5D1 JUMPI PUSH2 0x5D0 PUSH2 0x57C JUMP JUMPDEST JUMPDEST DUP1 PUSH1 0x40 MSTORE POP POP POP JUMP JUMPDEST PUSH0 PUSH2 0x5E3 PUSH2 0x436 JUMP JUMPDEST SWAP1 POP PUSH2 0x5EF DUP3 DUP3 PUSH2 0x5A9 JUMP JUMPDEST SWAP2 SWAP1 POP JUMP JUMPDEST PUSH0 PUSH8 0xFFFFFFFFFFFFFFFF DUP3 GT ISZERO PUSH2 0x60E JUMPI PUSH2 0x60D PUSH2 0x57C JUMP JUMPDEST JUMPDEST PUSH2 0x617 DUP3 PUSH2 0x4CD JUMP JUMPDEST SWAP1 POP PUSH1 0x20 DUP2 ADD SWAP1 POP SWAP2 SWAP1 POP JUMP JUMPDEST DUP3 DUP2 DUP4 CALLDATACOPY PUSH0 DUP4 DUP4 ADD MSTORE POP POP POP JUMP JUMPDEST PUSH0 PUSH2 0x644 PUSH2 0x63F DUP5 PUSH2 0x5F4 JUMP JUMPDEST PUSH2 0x5DA JUMP JUMPDEST SWAP1 POP DUP3 DUP2 MSTORE PUSH1 0x20 DUP2 ADD DUP5 DUP5 DUP5 ADD GT ISZERO PUSH2 0x660 JUMPI PUSH2 0x65F PUSH2 0x578 JUMP JUMPDEST JUMPDEST PUSH2 0x66B DUP5 DUP3 DUP6 PUSH2 0x624 JUMP JUMPDEST POP SWAP4 SWAP3 POP POP POP JUMP JUMPDEST PUSH0 DUP3 PUSH1 0x1F DUP4 ADD SLT PUSH2 0x687 JUMPI PUSH2 0x686 PUSH2 0x574 JUMP JUMPDEST JUMPDEST DUP2 CALLDATALOAD PUSH2 0x697 DUP5 DUP3 PUSH1 0x20 DUP7 ADD PUSH2 0x632 JUMP JUMPDEST SWAP2 POP POP SWAP3 SWAP2 POP POP JUMP JUMPDEST PUSH0 DUP1 PUSH0 DUP1 PUSH0 PUSH1 0xA0 DUP7 DUP9 SUB SLT ISZERO PUSH2 0x6B9 JUMPI PUSH2 0x6B8 PUSH2 0x43F JUMP JUMPDEST JUMPDEST PUSH0 PUSH2 0x6C6 DUP9 DUP3 DUP10 ADD PUSH2 0x466 JUMP JUMPDEST SWAP6 POP POP PUSH1 0x20 DUP7 ADD CALLDATALOAD PUSH8 0xFFFFFFFFFFFFFFFF DUP2 GT ISZERO PUSH2 0x6E7 JUMPI PUSH2 0x6E6 PUSH2 0x443 JUMP JUMPDEST JUMPDEST PUSH2 0x6F3 DUP9 DUP3 DUP10 ADD PUSH2 0x673 JUMP JUMPDEST SWAP5 POP POP PUSH1 0x40 DUP7 ADD CALLDATALOAD PUSH8 0xFFFFFFFFFFFFFFFF DUP2 GT ISZERO PUSH2 0x714 JUMPI PUSH2 0x713 PUSH2 0x443 JUMP JUMPDEST JUMPDEST PUSH2 0x720 DUP9 DUP3 DUP10 ADD PUSH2 0x673 JUMP JUMPDEST SWAP4 POP POP PUSH1 0x60 DUP7 ADD CALLDATALOAD PUSH8 0xFFFFFFFFFFFFFFFF DUP2 GT ISZERO PUSH2 0x741 JUMPI PUSH2 0x740 PUSH2 0x443 JUMP JUMPDEST JUMPDEST PUSH2 0x74D DUP9 DUP3 DUP10 ADD PUSH2 0x673 JUMP JUMPDEST SWAP3 POP POP PUSH1 0x80 DUP7 ADD CALLDATALOAD PUSH8 0xFFFFFFFFFFFFFFFF DUP2 GT ISZERO PUSH2 0x76E JUMPI PUSH2 0x76D PUSH2 0x443 JUMP JUMPDEST JUMPDEST PUSH2 0x77A DUP9 DUP3 DUP10 ADD PUSH2 0x673 JUMP JUMPDEST SWAP2 POP POP SWAP3 SWAP6 POP SWAP3 SWAP6 SWAP1 SWAP4 POP JUMP JUMPDEST PUSH0 PUSH20 0xFFFFFFFFFFFFFFFFFFFFFFFFFFFFFFFFFFFFFFFF DUP3 AND SWAP1 POP SWAP2 SWAP1 POP JUMP JUMPDEST PUSH0 PUSH2 0x7B0 DUP3 PUSH2 0x787 JUMP JUMPDEST SWAP1 POP SWAP2 SWAP1 POP JUMP JUMPDEST PUSH2 0x7C0 DUP2 PUSH2 0x7A6 JUMP JUMPDEST DUP3 MSTORE POP POP JUMP JUMPDEST PUSH0 PUSH1 0x20 DUP3 ADD SWAP1 POP PUSH2 0x7D9 PUSH0 DUP4 ADD DUP5 PUSH2 0x7B7 JUMP JUMPDEST SWAP3 SWAP2 POP POP JUMP JUMPDEST PUSH32 0x4E487B7100000000000000000000000000000000000000000000000000000000 PUSH0 MSTORE PUSH1 0x22 PUSH1 0x4 MSTORE PUSH1 0x24 PUSH0 REVERT JUMPDEST PUSH0 PUSH1 0x2 DUP3 DIV SWAP1 POP PUSH1 0x1 DUP3 AND DUP1 PUSH2 0x823 JUMPI PUSH1 0x7F DUP3 AND SWAP2 POP JUMPDEST PUSH1 0x20 DUP3 LT DUP2 SUB PUSH2 0x836 JUMPI PUSH2 0x835 PUSH2 0x7DF JUMP JUMPDEST JUMPDEST POP SWAP2 SWAP1 POP JUMP JUMPDEST PUSH32 0x556E617574686F72697365640000000000000000000000000000000000000000 PUSH0 DUP3 ADD MSTORE POP JUMP JUMPDEST PUSH0 PUSH2 0x870 PUSH1 0xC DUP4 PUSH2 0x4AF JUMP JUMPDEST SWAP2 POP PUSH2 0x87B DUP3 PUSH2 0x83C JUMP JUMPDEST PUSH1 0x20 DUP3 ADD SWAP1 POP SWAP2 SWAP1 POP JUMP JUMPDEST PUSH0 PUSH1 0x20 DUP3 ADD SWAP1 POP DUP2 DUP2 SUB PUSH0 DUP4 ADD MSTORE PUSH2 0x89D DUP2 PUSH2 0x864 JUMP JUMPDEST SWAP1 POP SWAP2 SWAP1 POP JUMP JUMPDEST PUSH0 DUP2 SWAP1 POP DUP2 PUSH0 MSTORE PUSH1 0x20 PUSH0 KECCAK256 SWAP1 POP SWAP2 SWAP1 POP JUMP JUMPDEST PUSH0 PUSH1 0x20 PUSH1 0x1F DUP4 ADD DIV SWAP1 POP SWAP2 SWAP1 POP JUMP JUMPDEST PUSH0 DUP3 DUP3 SHL SWAP1 POP SWAP3 SWAP2 POP POP JUMP JUMPDEST PUSH0 PUSH1 0x8 DUP4 MUL PUSH2 0x900 PUSH32 0xFFFFFFFFFFFFFFFFFFFFFFFFFFFFFFFFFFFFFFFFFFFFFFFFFFFFFFFFFFFFFFFF DUP3 PUSH2 0x8C5 JUMP JUMPDEST PUSH2 0x90A DUP7 DUP4 PUSH2 0x8C5 JUMP JUMPDEST SWAP6 POP DUP1 NOT DUP5 AND SWAP4 POP DUP1 DUP7 AND DUP5 OR SWAP3 POP POP POP SWAP4 SWAP3 POP POP POP JUMP JUMPDEST PUSH0 DUP2 SWAP1 POP SWAP2 SWAP1 POP JUMP JUMPDEST PUSH0 PUSH2 0x945 PUSH2 0x940 PUSH2 0x93B DUP5 PUSH2 0x447 JUMP JUMPDEST PUSH2 0x922 JUMP JUMPDEST PUSH2 0x447 JUMP JUMPDEST SWAP1 POP SWAP2 SWAP1 POP JUMP JUMPDEST PUSH0 DUP2 SWAP1 POP SWAP2 SWAP1 POP JUMP JUMPDEST PUSH2 0x95E DUP4 PUSH2 0x92B JUMP JUMPDEST PUSH2 0x972 PUSH2 0x96A DUP3 PUSH2 0x94C JUMP JUMPDEST DUP5 DUP5 SLOAD PUSH2 0x8D1 JUMP JUMPDEST DUP3 SSTORE POP POP POP POP JUMP JUMPDEST PUSH0 SWAP1 JUMP JUMPDEST PUSH2 0x986 PUSH2 0x97A JUMP JUMPDEST PUSH2 0x991 DUP2 DUP5 DUP5 PUSH2 0x955 JUMP JUMPDEST POP POP POP JUMP JUMPDEST JUMPDEST DUP2 DUP2 LT ISZERO PUSH2 0x9B4 JUMPI PUSH2 0x9A9 PUSH0 DUP3 PUSH2 0x97E JUMP JUMPDEST PUSH1 0x1 DUP2 ADD SWAP1 POP PUSH2 0x997 JUMP JUMPDEST POP POP JUMP JUMPDEST PUSH1 0x1F DUP3 GT ISZERO PUSH2 0x9F9 JUMPI PUSH2 0x9CA DUP2 PUSH2 0x8A4 JUMP JUMPDEST PUSH2 0x9D3 DUP5 PUSH2 0x8B6 JUMP JUMPDEST DUP2 ADD PUSH1 0x20 DUP6 LT ISZERO PUSH2 0x9E2 JUMPI DUP2 SWAP1 POP JUMPDEST PUSH2 0x9F6 PUSH2 0x9EE DUP6 PUSH2 0x8B6 JUMP JUMPDEST DUP4 ADD DUP3 PUSH2 0x996 JUMP JUMPDEST POP POP JUMPDEST POP POP POP JUMP JUMPDEST PUSH0 DUP3 DUP3 SHR SWAP1 POP SWAP3 SWAP2 POP POP JUMP JUMPDEST PUSH0 PUSH2 0xA19 PUSH0 NOT DUP5 PUSH1 0x8 MUL PUSH2 0x9FE JUMP JUMPDEST NOT DUP1 DUP4 AND SWAP2 POP POP SWAP3 SWAP2 POP POP JUMP JUMPDEST PUSH0 PUSH2 0xA31 DUP4 DUP4 PUSH2 0xA0A JUMP JUMPDEST SWAP2 POP DUP3 PUSH1 0x2 MUL DUP3 OR SWAP1 POP SWAP3 SWAP2 POP POP JUMP JUMPDEST PUSH2 0xA4A DUP3 PUSH2 0x4A5 JUMP JUMPDEST PUSH8 0xFFFFFFFFFFFFFFFF DUP2 GT ISZERO PUSH2 0xA63 JUMPI PUSH2 0xA62 PUSH2 0x57C JUMP JUMPDEST JUMPDEST PUSH2 0xA6D DUP3 SLOAD PUSH2 0x80C JUMP JUMPDEST PUSH2 0xA78 DUP3 DUP3 DUP6 PUSH2 0x9B8 JUMP JUMPDEST PUSH0 PUSH1 0x20 SWAP1 POP PUSH1 0x1F DUP4 GT PUSH1 0x1 DUP2 EQ PUSH2 0xAA9 JUMPI PUSH0 DUP5 ISZERO PUSH2 0xA97 JUMPI DUP3 DUP8 ADD MLOAD SWAP1 POP JUMPDEST PUSH2 0xAA1 DUP6 DUP3 PUSH2 0xA26 JUMP JUMPDEST DUP7 SSTORE POP PUSH2 0xB08 JUMP JUMPDEST PUSH1 0x1F NOT DUP5 AND PUSH2 0xAB7 DUP7 PUSH2 0x8A4 JUMP JUMPDEST PUSH0 JUMPDEST DUP3 DUP2 LT ISZERO PUSH2 0xADE JUMPI DUP5 DUP10 ADD MLOAD DUP3 SSTORE PUSH1 0x1 DUP3 ADD SWAP2 POP PUSH1 0x20 DUP6 ADD SWAP5 POP PUSH1 0x20 DUP2 ADD SWAP1 POP PUSH2 0xAB9 JUMP JUMPDEST DUP7 DUP4 LT ISZERO PUSH2 0xAFB JUMPI DUP5 DUP10 ADD MLOAD PUSH2 0xAF7 PUSH1 0x1F DUP10 AND DUP3 PUSH2 0xA0A JUMP JUMPDEST DUP4 SSTORE POP JUMPDEST PUSH1 0x1 PUSH1 0x2 DUP9 MUL ADD DUP9 SSTORE POP POP POP JUMPDEST POP POP POP POP POP POP JUMP INVALID LOG2 PUSH5 0x6970667358 0x22 SLT KECCAK256 0x2E 0xD3 GT BLOCKHASH PUSH10 0x1A3352BFD9ECF30B7719 DUP12 DUP16 MCOPY 0xD CREATE2 SWAP5 0xDB PUSH30 0x4190FE627A4B713DA964736F6C634300081A003300000000000000000000 "
				},
				"gasEstimates": {
					"creation": {
						"codeDepositCost": "577200",
						"executionCost": "24876",
						"totalCost": "602076"
					},
					"external": {
						"admin()": "2527",
						"certificates(uint256)": "infinite",
						"issue(uint256,string,string,string,string)": "infinite"
					}
				},
				"methodIdentifiers": {
					"admin()": "f851a440",
					"certificates(uint256)": "663b3e22",
					"issue(uint256,string,string,string,string)": "d1e7be26"
				}
			},
			"storageLayout": {
				"storage": [
					{
						"astId": 12,
						"contract": "Certificate_Sample/certificate.sol:Cert",
						"label": "admin",
						"offset": 0,
						"slot": "0",
						"type": "t_address"
					},
					{
						"astId": 38,
						"contract": "Certificate_Sample/certificate.sol:Cert",
						"label": "certificates",
						"offset": 0,
						"slot": "1",
						"type": "t_mapping(t_uint256,t_struct(certificate)10_storage)"
					}
				],
				"types": {
					"t_address": {
						"encoding": "inplace",
						"label": "address",
						"numberOfBytes": "20"
					},
					"t_mapping(t_uint256,t_struct(certificate)10_storage)": {
						"encoding": "mapping",
						"key": "t_uint256",
						"label": "mapping(uint256 => struct Cert.certificate)",
						"numberOfBytes": "32",
						"value": "t_struct(certificate)10_storage"
					},
					"t_string_storage": {
						"encoding": "bytes",
						"label": "string",
						"numberOfBytes": "32"
					},
					"t_struct(certificate)10_storage": {
						"encoding": "inplace",
						"label": "struct Cert.certificate",
						"members": [
							{
								"astId": 3,
								"contract": "Certificate_Sample/certificate.sol:Cert",
								"label": "name",
								"offset": 0,
								"slot": "0",
								"type": "t_string_storage"
							},
							{
								"astId": 5,
								"contract": "Certificate_Sample/certificate.sol:Cert",
								"label": "course",
								"offset": 0,
								"slot": "1",
								"type": "t_string_storage"
							},
							{
								"astId": 7,
								"contract": "Certificate_Sample/certificate.sol:Cert",
								"label": "grade",
								"offset": 0,
								"slot": "2",
								"type": "t_string_storage"
							},
							{
								"astId": 9,
								"contract": "Certificate_Sample/certificate.sol:Cert",
								"label": "date",
								"offset": 0,
								"slot": "3",
								"type": "t_string_storage"
							}
						],
						"numberOfBytes": "128"
					},
					"t_uint256": {
						"encoding": "inplace",
						"label": "uint256",
						"numberOfBytes": "32"
					}
				}
			},
			"userdoc": {
				"kind": "user",
				"methods": {},
				"version": 1
			}
		}
	}
}