{
	"Fallback,Recive/example.sol": {
		"DemoF": {
			"abi": [
				{
					"inputs": [],
					"stateMutability": "nonpayable",
					"type": "constructor"
				},
				{
					"stateMutability": "payable",
					"type": "fallback"
				},
				{
					"inputs": [],
					"name": "admin",
					"outputs": [
						{
							"internalType": "address payable",
							"name": "",
							"type": "address"
						}
					],
					"stateMutability": "view",
					"type": "function"
				},
				{
					"inputs": [
						{
							"internalType": "string",
							"name": "_msg",
							"type": "string"
						}
					],
					"name": "setMsg",
					"outputs": [],
					"stateMutability": "nonpayable",
					"type": "function"
				},
				{
					"stateMutability": "payable",
					"type": "receive"
				}
			],
			"devdoc": {
				"kind": "dev",
				"methods": {},
				"version": 1
			},
			"evm": {
				"assembly": "    /* \"Fallback,Recive/example.sol\":56:391  contract DemoF{... */\n  mstore(0x40, 0x80)\n    /* \"Fallback,Recive/example.sol\":126:181  constructor(){... */\n  callvalue\n  dup1\n  iszero\n  tag_1\n  jumpi\n  0x00\n  dup1\n  revert\ntag_1:\n  pop\n    /* \"Fallback,Recive/example.sol\":163:173  msg.sender */\n  caller\n    /* \"Fallback,Recive/example.sol\":149:154  admin */\n  0x01\n  0x00\n    /* \"Fallback,Recive/example.sol\":149:174  admin=payable(msg.sender) */\n  0x0100\n  exp\n  dup2\n  sload\n  dup2\n  0xffffffffffffffffffffffffffffffffffffffff\n  mul\n  not\n  and\n  swap1\n  dup4\n  0xffffffffffffffffffffffffffffffffffffffff\n  and\n  mul\n  or\n  swap1\n  sstore\n  pop\n    /* \"Fallback,Recive/example.sol\":56:391  contract DemoF{... */\n  dataSize(sub_0)\n  dup1\n  dataOffset(sub_0)\n  0x00\n  codecopy\n  0x00\n  return\nstop\n\nsub_0: assembly {\n        /* \"Fallback,Recive/example.sol\":56:391  contract DemoF{... */\n      mstore(0x40, 0x80)\n      jumpi(tag_1, lt(calldatasize, 0x04))\n      shr(0xe0, calldataload(0x00))\n      dup1\n      0xc4784fd4\n      eq\n      tag_3\n      jumpi\n      dup1\n      0xf851a440\n      eq\n      tag_4\n      jumpi\n      jump(tag_2)\n    tag_1:\n      jumpi(tag_2, calldatasize)\n        /* \"Fallback,Recive/example.sol\":354:359  admin */\n      0x01\n      0x00\n      swap1\n      sload\n      swap1\n      0x0100\n      exp\n      swap1\n      div\n      0xffffffffffffffffffffffffffffffffffffffff\n      and\n        /* \"Fallback,Recive/example.sol\":354:368  admin.transfer */\n      0xffffffffffffffffffffffffffffffffffffffff\n      and\n        /* \"Fallback,Recive/example.sol\":354:379  admin.transfer(msg.value) */\n      0x08fc\n        /* \"Fallback,Recive/example.sol\":369:378  msg.value */\n      callvalue\n        /* \"Fallback,Recive/example.sol\":354:379  admin.transfer(msg.value) */\n      swap1\n      dup2\n      iszero\n      mul\n      swap1\n      mload(0x40)\n      0x00\n      mload(0x40)\n      dup1\n      dup4\n      sub\n      dup2\n      dup6\n      dup9\n      dup9\n      call\n      swap4\n      pop\n      pop\n      pop\n      pop\n      iszero\n      dup1\n      iszero\n      tag_8\n      jumpi\n      returndatasize\n      0x00\n      dup1\n      returndatacopy\n      revert(0x00, returndatasize)\n    tag_8:\n      stop\n        /* \"Fallback,Recive/example.sol\":56:391  contract DemoF{... */\n    tag_2:\n        /* \"Fallback,Recive/example.sol\":295:303  revert() */\n      0x00\n      dup1\n      revert\n        /* \"Fallback,Recive/example.sol\":186:252  function setMsg(string memory _msg)public{... */\n    tag_3:\n      callvalue\n      dup1\n      iszero\n      tag_11\n      jumpi\n      0x00\n      dup1\n      revert\n    tag_11:\n      pop\n      tag_12\n      0x04\n      dup1\n      calldatasize\n      sub\n      dup2\n      add\n      swap1\n      tag_13\n      swap2\n      swap1\n      tag_14\n      jump\t// in\n    tag_13:\n      tag_15\n      jump\t// in\n    tag_12:\n      stop\n        /* \"Fallback,Recive/example.sol\":92:120  address payable public admin */\n    tag_4:\n      callvalue\n      dup1\n      iszero\n      tag_16\n      jumpi\n      0x00\n      dup1\n      revert\n    tag_16:\n      pop\n      tag_17\n      tag_18\n      jump\t// in\n    tag_17:\n      mload(0x40)\n      tag_19\n      swap2\n      swap1\n      tag_20\n      jump\t// in\n    tag_19:\n      mload(0x40)\n      dup1\n      swap2\n      sub\n      swap1\n      return\n        /* \"Fallback,Recive/example.sol\":186:252  function setMsg(string memory _msg)public{... */\n    tag_15:\n        /* \"Fallback,Recive/example.sol\":241:245  _msg */\n      dup1\n        /* \"Fallback,Recive/example.sol\":237:240  Msg */\n      0x00\n        /* \"Fallback,Recive/example.sol\":237:245  Msg=_msg */\n      swap1\n      dup2\n      tag_22\n      swap2\n      swap1\n      tag_23\n      jump\t// in\n    tag_22:\n      pop\n        /* \"Fallback,Recive/example.sol\":186:252  function setMsg(string memory _msg)public{... */\n      pop\n      jump\t// out\n        /* \"Fallback,Recive/example.sol\":92:120  address payable public admin */\n    tag_18:\n      0x01\n      0x00\n      swap1\n      sload\n      swap1\n      0x0100\n      exp\n      swap1\n      div\n      0xffffffffffffffffffffffffffffffffffffffff\n      and\n      dup2\n      jump\t// out\n        /* \"#utility.yul\":7:82   */\n    tag_24:\n        /* \"#utility.yul\":40:46   */\n      0x00\n        /* \"#utility.yul\":73:75   */\n      0x40\n        /* \"#utility.yul\":67:76   */\n      mload\n        /* \"#utility.yul\":57:76   */\n      swap1\n      pop\n        /* \"#utility.yul\":7:82   */\n      swap1\n      jump\t// out\n        /* \"#utility.yul\":88:205   */\n    tag_25:\n        /* \"#utility.yul\":197:198   */\n      0x00\n        /* \"#utility.yul\":194:195   */\n      dup1\n        /* \"#utility.yul\":187:199   */\n      revert\n        /* \"#utility.yul\":211:328   */\n    tag_26:\n        /* \"#utility.yul\":320:321   */\n      0x00\n        /* \"#utility.yul\":317:318   */\n      dup1\n        /* \"#utility.yul\":310:322   */\n      revert\n        /* \"#utility.yul\":334:451   */\n    tag_27:\n        /* \"#utility.yul\":443:444   */\n      0x00\n        /* \"#utility.yul\":440:441   */\n      dup1\n        /* \"#utility.yul\":433:445   */\n      revert\n        /* \"#utility.yul\":457:574   */\n    tag_28:\n        /* \"#utility.yul\":566:567   */\n      0x00\n        /* \"#utility.yul\":563:564   */\n      dup1\n        /* \"#utility.yul\":556:568   */\n      revert\n        /* \"#utility.yul\":580:682   */\n    tag_29:\n        /* \"#utility.yul\":621:627   */\n      0x00\n        /* \"#utility.yul\":672:674   */\n      0x1f\n        /* \"#utility.yul\":668:675   */\n      not\n        /* \"#utility.yul\":663:665   */\n      0x1f\n        /* \"#utility.yul\":656:661   */\n      dup4\n        /* \"#utility.yul\":652:666   */\n      add\n        /* \"#utility.yul\":648:676   */\n      and\n        /* \"#utility.yul\":638:676   */\n      swap1\n      pop\n        /* \"#utility.yul\":580:682   */\n      swap2\n      swap1\n      pop\n      jump\t// out\n        /* \"#utility.yul\":688:868   */\n    tag_30:\n        /* \"#utility.yul\":736:813   */\n      0x4e487b7100000000000000000000000000000000000000000000000000000000\n        /* \"#utility.yul\":733:734   */\n      0x00\n        /* \"#utility.yul\":726:814   */\n      mstore\n        /* \"#utility.yul\":833:837   */\n      0x41\n        /* \"#utility.yul\":830:831   */\n      0x04\n        /* \"#utility.yul\":823:838   */\n      mstore\n        /* \"#utility.yul\":857:861   */\n      0x24\n        /* \"#utility.yul\":854:855   */\n      0x00\n        /* \"#utility.yul\":847:862   */\n      revert\n        /* \"#utility.yul\":874:1155   */\n    tag_31:\n        /* \"#utility.yul\":957:984   */\n      tag_68\n        /* \"#utility.yul\":979:983   */\n      dup3\n        /* \"#utility.yul\":957:984   */\n      tag_29\n      jump\t// in\n    tag_68:\n        /* \"#utility.yul\":949:955   */\n      dup2\n        /* \"#utility.yul\":945:985   */\n      add\n        /* \"#utility.yul\":1087:1093   */\n      dup2\n        /* \"#utility.yul\":1075:1085   */\n      dup2\n        /* \"#utility.yul\":1072:1094   */\n      lt\n        /* \"#utility.yul\":1051:1069   */\n      0xffffffffffffffff\n        /* \"#utility.yul\":1039:1049   */\n      dup3\n        /* \"#utility.yul\":1036:1070   */\n      gt\n        /* \"#utility.yul\":1033:1095   */\n      or\n        /* \"#utility.yul\":1030:1118   */\n      iszero\n      tag_69\n      jumpi\n        /* \"#utility.yul\":1098:1116   */\n      tag_70\n      tag_30\n      jump\t// in\n    tag_70:\n        /* \"#utility.yul\":1030:1118   */\n    tag_69:\n        /* \"#utility.yul\":1138:1148   */\n      dup1\n        /* \"#utility.yul\":1134:1136   */\n      0x40\n        /* \"#utility.yul\":1127:1149   */\n      mstore\n        /* \"#utility.yul\":917:1155   */\n      pop\n        /* \"#utility.yul\":874:1155   */\n      pop\n      pop\n      jump\t// out\n        /* \"#utility.yul\":1161:1290   */\n    tag_32:\n        /* \"#utility.yul\":1195:1201   */\n      0x00\n        /* \"#utility.yul\":1222:1242   */\n      tag_72\n      tag_24\n      jump\t// in\n    tag_72:\n        /* \"#utility.yul\":1212:1242   */\n      swap1\n      pop\n        /* \"#utility.yul\":1251:1284   */\n      tag_73\n        /* \"#utility.yul\":1279:1283   */\n      dup3\n        /* \"#utility.yul\":1271:1277   */\n      dup3\n        /* \"#utility.yul\":1251:1284   */\n      tag_31\n      jump\t// in\n    tag_73:\n        /* \"#utility.yul\":1161:1290   */\n      swap2\n      swap1\n      pop\n      jump\t// out\n        /* \"#utility.yul\":1296:1604   */\n    tag_33:\n        /* \"#utility.yul\":1358:1362   */\n      0x00\n        /* \"#utility.yul\":1448:1466   */\n      0xffffffffffffffff\n        /* \"#utility.yul\":1440:1446   */\n      dup3\n        /* \"#utility.yul\":1437:1467   */\n      gt\n        /* \"#utility.yul\":1434:1490   */\n      iszero\n      tag_75\n      jumpi\n        /* \"#utility.yul\":1470:1488   */\n      tag_76\n      tag_30\n      jump\t// in\n    tag_76:\n        /* \"#utility.yul\":1434:1490   */\n    tag_75:\n        /* \"#utility.yul\":1508:1537   */\n      tag_77\n        /* \"#utility.yul\":1530:1536   */\n      dup3\n        /* \"#utility.yul\":1508:1537   */\n      tag_29\n      jump\t// in\n    tag_77:\n        /* \"#utility.yul\":1500:1537   */\n      swap1\n      pop\n        /* \"#utility.yul\":1592:1596   */\n      0x20\n        /* \"#utility.yul\":1586:1590   */\n      dup2\n        /* \"#utility.yul\":1582:1597   */\n      add\n        /* \"#utility.yul\":1574:1597   */\n      swap1\n      pop\n        /* \"#utility.yul\":1296:1604   */\n      swap2\n      swap1\n      pop\n      jump\t// out\n        /* \"#utility.yul\":1610:1758   */\n    tag_34:\n        /* \"#utility.yul\":1708:1714   */\n      dup3\n        /* \"#utility.yul\":1703:1706   */\n      dup2\n        /* \"#utility.yul\":1698:1701   */\n      dup4\n        /* \"#utility.yul\":1685:1715   */\n      calldatacopy\n        /* \"#utility.yul\":1749:1750   */\n      0x00\n        /* \"#utility.yul\":1740:1746   */\n      dup4\n        /* \"#utility.yul\":1735:1738   */\n      dup4\n        /* \"#utility.yul\":1731:1747   */\n      add\n        /* \"#utility.yul\":1724:1751   */\n      mstore\n        /* \"#utility.yul\":1610:1758   */\n      pop\n      pop\n      pop\n      jump\t// out\n        /* \"#utility.yul\":1764:2189   */\n    tag_35:\n        /* \"#utility.yul\":1842:1847   */\n      0x00\n        /* \"#utility.yul\":1867:1933   */\n      tag_80\n        /* \"#utility.yul\":1883:1932   */\n      tag_81\n        /* \"#utility.yul\":1925:1931   */\n      dup5\n        /* \"#utility.yul\":1883:1932   */\n      tag_33\n      jump\t// in\n    tag_81:\n        /* \"#utility.yul\":1867:1933   */\n      tag_32\n      jump\t// in\n    tag_80:\n        /* \"#utility.yul\":1858:1933   */\n      swap1\n      pop\n        /* \"#utility.yul\":1956:1962   */\n      dup3\n        /* \"#utility.yul\":1949:1954   */\n      dup2\n        /* \"#utility.yul\":1942:1963   */\n      mstore\n        /* \"#utility.yul\":1994:1998   */\n      0x20\n        /* \"#utility.yul\":1987:1992   */\n      dup2\n        /* \"#utility.yul\":1983:1999   */\n      add\n        /* \"#utility.yul\":2032:2035   */\n      dup5\n        /* \"#utility.yul\":2023:2029   */\n      dup5\n        /* \"#utility.yul\":2018:2021   */\n      dup5\n        /* \"#utility.yul\":2014:2030   */\n      add\n        /* \"#utility.yul\":2011:2036   */\n      gt\n        /* \"#utility.yul\":2008:2120   */\n      iszero\n      tag_82\n      jumpi\n        /* \"#utility.yul\":2039:2118   */\n      tag_83\n      tag_28\n      jump\t// in\n    tag_83:\n        /* \"#utility.yul\":2008:2120   */\n    tag_82:\n        /* \"#utility.yul\":2129:2183   */\n      tag_84\n        /* \"#utility.yul\":2176:2182   */\n      dup5\n        /* \"#utility.yul\":2171:2174   */\n      dup3\n        /* \"#utility.yul\":2166:2169   */\n      dup6\n        /* \"#utility.yul\":2129:2183   */\n      tag_34\n      jump\t// in\n    tag_84:\n        /* \"#utility.yul\":1848:2189   */\n      pop\n        /* \"#utility.yul\":1764:2189   */\n      swap4\n      swap3\n      pop\n      pop\n      pop\n      jump\t// out\n        /* \"#utility.yul\":2209:2549   */\n    tag_36:\n        /* \"#utility.yul\":2265:2270   */\n      0x00\n        /* \"#utility.yul\":2314:2317   */\n      dup3\n        /* \"#utility.yul\":2307:2311   */\n      0x1f\n        /* \"#utility.yul\":2299:2305   */\n      dup4\n        /* \"#utility.yul\":2295:2312   */\n      add\n        /* \"#utility.yul\":2291:2318   */\n      slt\n        /* \"#utility.yul\":2281:2403   */\n      tag_86\n      jumpi\n        /* \"#utility.yul\":2322:2401   */\n      tag_87\n      tag_27\n      jump\t// in\n    tag_87:\n        /* \"#utility.yul\":2281:2403   */\n    tag_86:\n        /* \"#utility.yul\":2439:2445   */\n      dup2\n        /* \"#utility.yul\":2426:2446   */\n      calldataload\n        /* \"#utility.yul\":2464:2543   */\n      tag_88\n        /* \"#utility.yul\":2539:2542   */\n      dup5\n        /* \"#utility.yul\":2531:2537   */\n      dup3\n        /* \"#utility.yul\":2524:2528   */\n      0x20\n        /* \"#utility.yul\":2516:2522   */\n      dup7\n        /* \"#utility.yul\":2512:2529   */\n      add\n        /* \"#utility.yul\":2464:2543   */\n      tag_35\n      jump\t// in\n    tag_88:\n        /* \"#utility.yul\":2455:2543   */\n      swap2\n      pop\n        /* \"#utility.yul\":2271:2549   */\n      pop\n        /* \"#utility.yul\":2209:2549   */\n      swap3\n      swap2\n      pop\n      pop\n      jump\t// out\n        /* \"#utility.yul\":2555:3064   */\n    tag_14:\n        /* \"#utility.yul\":2624:2630   */\n      0x00\n        /* \"#utility.yul\":2673:2675   */\n      0x20\n        /* \"#utility.yul\":2661:2670   */\n      dup3\n        /* \"#utility.yul\":2652:2659   */\n      dup5\n        /* \"#utility.yul\":2648:2671   */\n      sub\n        /* \"#utility.yul\":2644:2676   */\n      slt\n        /* \"#utility.yul\":2641:2760   */\n      iszero\n      tag_90\n      jumpi\n        /* \"#utility.yul\":2679:2758   */\n      tag_91\n      tag_25\n      jump\t// in\n    tag_91:\n        /* \"#utility.yul\":2641:2760   */\n    tag_90:\n        /* \"#utility.yul\":2827:2828   */\n      0x00\n        /* \"#utility.yul\":2816:2825   */\n      dup3\n        /* \"#utility.yul\":2812:2829   */\n      add\n        /* \"#utility.yul\":2799:2830   */\n      calldataload\n        /* \"#utility.yul\":2857:2875   */\n      0xffffffffffffffff\n        /* \"#utility.yul\":2849:2855   */\n      dup2\n        /* \"#utility.yul\":2846:2876   */\n      gt\n        /* \"#utility.yul\":2843:2960   */\n      iszero\n      tag_92\n      jumpi\n        /* \"#utility.yul\":2879:2958   */\n      tag_93\n      tag_26\n      jump\t// in\n    tag_93:\n        /* \"#utility.yul\":2843:2960   */\n    tag_92:\n        /* \"#utility.yul\":2984:3047   */\n      tag_94\n        /* \"#utility.yul\":3039:3046   */\n      dup5\n        /* \"#utility.yul\":3030:3036   */\n      dup3\n        /* \"#utility.yul\":3019:3028   */\n      dup6\n        /* \"#utility.yul\":3015:3037   */\n      add\n        /* \"#utility.yul\":2984:3047   */\n      tag_36\n      jump\t// in\n    tag_94:\n        /* \"#utility.yul\":2974:3047   */\n      swap2\n      pop\n        /* \"#utility.yul\":2770:3057   */\n      pop\n        /* \"#utility.yul\":2555:3064   */\n      swap3\n      swap2\n      pop\n      pop\n      jump\t// out\n        /* \"#utility.yul\":3070:3196   */\n    tag_37:\n        /* \"#utility.yul\":3107:3114   */\n      0x00\n        /* \"#utility.yul\":3147:3189   */\n      0xffffffffffffffffffffffffffffffffffffffff\n        /* \"#utility.yul\":3140:3145   */\n      dup3\n        /* \"#utility.yul\":3136:3190   */\n      and\n        /* \"#utility.yul\":3125:3190   */\n      swap1\n      pop\n        /* \"#utility.yul\":3070:3196   */\n      swap2\n      swap1\n      pop\n      jump\t// out\n        /* \"#utility.yul\":3202:3306   */\n    tag_38:\n        /* \"#utility.yul\":3247:3254   */\n      0x00\n        /* \"#utility.yul\":3276:3300   */\n      tag_97\n        /* \"#utility.yul\":3294:3299   */\n      dup3\n        /* \"#utility.yul\":3276:3300   */\n      tag_37\n      jump\t// in\n    tag_97:\n        /* \"#utility.yul\":3265:3300   */\n      swap1\n      pop\n        /* \"#utility.yul\":3202:3306   */\n      swap2\n      swap1\n      pop\n      jump\t// out\n        /* \"#utility.yul\":3312:3454   */\n    tag_39:\n        /* \"#utility.yul\":3415:3447   */\n      tag_99\n        /* \"#utility.yul\":3441:3446   */\n      dup2\n        /* \"#utility.yul\":3415:3447   */\n      tag_38\n      jump\t// in\n    tag_99:\n        /* \"#utility.yul\":3410:3413   */\n      dup3\n        /* \"#utility.yul\":3403:3448   */\n      mstore\n        /* \"#utility.yul\":3312:3454   */\n      pop\n      pop\n      jump\t// out\n        /* \"#utility.yul\":3460:3714   */\n    tag_20:\n        /* \"#utility.yul\":3569:3573   */\n      0x00\n        /* \"#utility.yul\":3607:3609   */\n      0x20\n        /* \"#utility.yul\":3596:3605   */\n      dup3\n        /* \"#utility.yul\":3592:3610   */\n      add\n        /* \"#utility.yul\":3584:3610   */\n      swap1\n      pop\n        /* \"#utility.yul\":3620:3707   */\n      tag_101\n        /* \"#utility.yul\":3704:3705   */\n      0x00\n        /* \"#utility.yul\":3693:3702   */\n      dup4\n        /* \"#utility.yul\":3689:3706   */\n      add\n        /* \"#utility.yul\":3680:3686   */\n      dup5\n        /* \"#utility.yul\":3620:3707   */\n      tag_39\n      jump\t// in\n    tag_101:\n        /* \"#utility.yul\":3460:3714   */\n      swap3\n      swap2\n      pop\n      pop\n      jump\t// out\n        /* \"#utility.yul\":3720:3819   */\n    tag_40:\n        /* \"#utility.yul\":3772:3778   */\n      0x00\n        /* \"#utility.yul\":3806:3811   */\n      dup2\n        /* \"#utility.yul\":3800:3812   */\n      mload\n        /* \"#utility.yul\":3790:3812   */\n      swap1\n      pop\n        /* \"#utility.yul\":3720:3819   */\n      swap2\n      swap1\n      pop\n      jump\t// out\n        /* \"#utility.yul\":3825:4005   */\n    tag_41:\n        /* \"#utility.yul\":3873:3950   */\n      0x4e487b7100000000000000000000000000000000000000000000000000000000\n        /* \"#utility.yul\":3870:3871   */\n      0x00\n        /* \"#utility.yul\":3863:3951   */\n      mstore\n        /* \"#utility.yul\":3970:3974   */\n      0x22\n        /* \"#utility.yul\":3967:3968   */\n      0x04\n        /* \"#utility.yul\":3960:3975   */\n      mstore\n        /* \"#utility.yul\":3994:3998   */\n      0x24\n        /* \"#utility.yul\":3991:3992   */\n      0x00\n        /* \"#utility.yul\":3984:3999   */\n      revert\n        /* \"#utility.yul\":4011:4331   */\n    tag_42:\n        /* \"#utility.yul\":4055:4061   */\n      0x00\n        /* \"#utility.yul\":4092:4093   */\n      0x02\n        /* \"#utility.yul\":4086:4090   */\n      dup3\n        /* \"#utility.yul\":4082:4094   */\n      div\n        /* \"#utility.yul\":4072:4094   */\n      swap1\n      pop\n        /* \"#utility.yul\":4139:4140   */\n      0x01\n        /* \"#utility.yul\":4133:4137   */\n      dup3\n        /* \"#utility.yul\":4129:4141   */\n      and\n        /* \"#utility.yul\":4160:4178   */\n      dup1\n        /* \"#utility.yul\":4150:4231   */\n      tag_105\n      jumpi\n        /* \"#utility.yul\":4216:4220   */\n      0x7f\n        /* \"#utility.yul\":4208:4214   */\n      dup3\n        /* \"#utility.yul\":4204:4221   */\n      and\n        /* \"#utility.yul\":4194:4221   */\n      swap2\n      pop\n        /* \"#utility.yul\":4150:4231   */\n    tag_105:\n        /* \"#utility.yul\":4278:4280   */\n      0x20\n        /* \"#utility.yul\":4270:4276   */\n      dup3\n        /* \"#utility.yul\":4267:4281   */\n      lt\n        /* \"#utility.yul\":4247:4265   */\n      dup2\n        /* \"#utility.yul\":4244:4282   */\n      sub\n        /* \"#utility.yul\":4241:4325   */\n      tag_106\n      jumpi\n        /* \"#utility.yul\":4297:4315   */\n      tag_107\n      tag_41\n      jump\t// in\n    tag_107:\n        /* \"#utility.yul\":4241:4325   */\n    tag_106:\n        /* \"#utility.yul\":4062:4331   */\n      pop\n        /* \"#utility.yul\":4011:4331   */\n      swap2\n      swap1\n      pop\n      jump\t// out\n        /* \"#utility.yul\":4337:4478   */\n    tag_43:\n        /* \"#utility.yul\":4386:4390   */\n      0x00\n        /* \"#utility.yul\":4409:4412   */\n      dup2\n        /* \"#utility.yul\":4401:4412   */\n      swap1\n      pop\n        /* \"#utility.yul\":4432:4435   */\n      dup2\n        /* \"#utility.yul\":4429:4430   */\n      0x00\n        /* \"#utility.yul\":4422:4436   */\n      mstore\n        /* \"#utility.yul\":4466:4470   */\n      0x20\n        /* \"#utility.yul\":4463:4464   */\n      0x00\n        /* \"#utility.yul\":4453:4471   */\n      keccak256\n        /* \"#utility.yul\":4445:4471   */\n      swap1\n      pop\n        /* \"#utility.yul\":4337:4478   */\n      swap2\n      swap1\n      pop\n      jump\t// out\n        /* \"#utility.yul\":4484:4577   */\n    tag_44:\n        /* \"#utility.yul\":4521:4527   */\n      0x00\n        /* \"#utility.yul\":4568:4570   */\n      0x20\n        /* \"#utility.yul\":4563:4565   */\n      0x1f\n        /* \"#utility.yul\":4556:4561   */\n      dup4\n        /* \"#utility.yul\":4552:4566   */\n      add\n        /* \"#utility.yul\":4548:4571   */\n      div\n        /* \"#utility.yul\":4538:4571   */\n      swap1\n      pop\n        /* \"#utility.yul\":4484:4577   */\n      swap2\n      swap1\n      pop\n      jump\t// out\n        /* \"#utility.yul\":4583:4690   */\n    tag_45:\n        /* \"#utility.yul\":4627:4635   */\n      0x00\n        /* \"#utility.yul\":4677:4682   */\n      dup3\n        /* \"#utility.yul\":4671:4675   */\n      dup3\n        /* \"#utility.yul\":4667:4683   */\n      shl\n        /* \"#utility.yul\":4646:4683   */\n      swap1\n      pop\n        /* \"#utility.yul\":4583:4690   */\n      swap3\n      swap2\n      pop\n      pop\n      jump\t// out\n        /* \"#utility.yul\":4696:5089   */\n    tag_46:\n        /* \"#utility.yul\":4765:4771   */\n      0x00\n        /* \"#utility.yul\":4815:4816   */\n      0x08\n        /* \"#utility.yul\":4803:4813   */\n      dup4\n        /* \"#utility.yul\":4799:4817   */\n      mul\n        /* \"#utility.yul\":4838:4935   */\n      tag_112\n        /* \"#utility.yul\":4868:4934   */\n      0xffffffffffffffffffffffffffffffffffffffffffffffffffffffffffffffff\n        /* \"#utility.yul\":4857:4866   */\n      dup3\n        /* \"#utility.yul\":4838:4935   */\n      tag_45\n      jump\t// in\n    tag_112:\n        /* \"#utility.yul\":4956:4995   */\n      tag_113\n        /* \"#utility.yul\":4986:4994   */\n      dup7\n        /* \"#utility.yul\":4975:4984   */\n      dup4\n        /* \"#utility.yul\":4956:4995   */\n      tag_45\n      jump\t// in\n    tag_113:\n        /* \"#utility.yul\":4944:4995   */\n      swap6\n      pop\n        /* \"#utility.yul\":5028:5032   */\n      dup1\n        /* \"#utility.yul\":5024:5033   */\n      not\n        /* \"#utility.yul\":5017:5022   */\n      dup5\n        /* \"#utility.yul\":5013:5034   */\n      and\n        /* \"#utility.yul\":5004:5034   */\n      swap4\n      pop\n        /* \"#utility.yul\":5077:5081   */\n      dup1\n        /* \"#utility.yul\":5067:5075   */\n      dup7\n        /* \"#utility.yul\":5063:5082   */\n      and\n        /* \"#utility.yul\":5056:5061   */\n      dup5\n        /* \"#utility.yul\":5053:5083   */\n      or\n        /* \"#utility.yul\":5043:5083   */\n      swap3\n      pop\n        /* \"#utility.yul\":4772:5089   */\n      pop\n      pop\n        /* \"#utility.yul\":4696:5089   */\n      swap4\n      swap3\n      pop\n      pop\n      pop\n      jump\t// out\n        /* \"#utility.yul\":5095:5172   */\n    tag_47:\n        /* \"#utility.yul\":5132:5139   */\n      0x00\n        /* \"#utility.yul\":5161:5166   */\n      dup2\n        /* \"#utility.yul\":5150:5166   */\n      swap1\n      pop\n        /* \"#utility.yul\":5095:5172   */\n      swap2\n      swap1\n      pop\n      jump\t// out\n        /* \"#utility.yul\":5178:5238   */\n    tag_48:\n        /* \"#utility.yul\":5206:5209   */\n      0x00\n        /* \"#utility.yul\":5227:5232   */\n      dup2\n        /* \"#utility.yul\":5220:5232   */\n      swap1\n      pop\n        /* \"#utility.yul\":5178:5238   */\n      swap2\n      swap1\n      pop\n      jump\t// out\n        /* \"#utility.yul\":5244:5386   */\n    tag_49:\n        /* \"#utility.yul\":5294:5303   */\n      0x00\n        /* \"#utility.yul\":5327:5380   */\n      tag_117\n        /* \"#utility.yul\":5345:5379   */\n      tag_118\n        /* \"#utility.yul\":5354:5378   */\n      tag_119\n        /* \"#utility.yul\":5372:5377   */\n      dup5\n        /* \"#utility.yul\":5354:5378   */\n      tag_47\n      jump\t// in\n    tag_119:\n        /* \"#utility.yul\":5345:5379   */\n      tag_48\n      jump\t// in\n    tag_118:\n        /* \"#utility.yul\":5327:5380   */\n      tag_47\n      jump\t// in\n    tag_117:\n        /* \"#utility.yul\":5314:5380   */\n      swap1\n      pop\n        /* \"#utility.yul\":5244:5386   */\n      swap2\n      swap1\n      pop\n      jump\t// out\n        /* \"#utility.yul\":5392:5467   */\n    tag_50:\n        /* \"#utility.yul\":5435:5438   */\n      0x00\n        /* \"#utility.yul\":5456:5461   */\n      dup2\n        /* \"#utility.yul\":5449:5461   */\n      swap1\n      pop\n        /* \"#utility.yul\":5392:5467   */\n      swap2\n      swap1\n      pop\n      jump\t// out\n        /* \"#utility.yul\":5473:5742   */\n    tag_51:\n        /* \"#utility.yul\":5583:5622   */\n      tag_122\n        /* \"#utility.yul\":5614:5621   */\n      dup4\n        /* \"#utility.yul\":5583:5622   */\n      tag_49\n      jump\t// in\n    tag_122:\n        /* \"#utility.yul\":5644:5735   */\n      tag_123\n        /* \"#utility.yul\":5693:5734   */\n      tag_124\n        /* \"#utility.yul\":5717:5733   */\n      dup3\n        /* \"#utility.yul\":5693:5734   */\n      tag_50\n      jump\t// in\n    tag_124:\n        /* \"#utility.yul\":5685:5691   */\n      dup5\n        /* \"#utility.yul\":5678:5682   */\n      dup5\n        /* \"#utility.yul\":5672:5683   */\n      sload\n        /* \"#utility.yul\":5644:5735   */\n      tag_46\n      jump\t// in\n    tag_123:\n        /* \"#utility.yul\":5638:5642   */\n      dup3\n        /* \"#utility.yul\":5631:5736   */\n      sstore\n        /* \"#utility.yul\":5549:5742   */\n      pop\n        /* \"#utility.yul\":5473:5742   */\n      pop\n      pop\n      pop\n      jump\t// out\n        /* \"#utility.yul\":5748:5821   */\n    tag_52:\n        /* \"#utility.yul\":5793:5796   */\n      0x00\n        /* \"#utility.yul\":5748:5821   */\n      swap1\n      jump\t// out\n        /* \"#utility.yul\":5827:6016   */\n    tag_53:\n        /* \"#utility.yul\":5904:5936   */\n      tag_127\n      tag_52\n      jump\t// in\n    tag_127:\n        /* \"#utility.yul\":5945:6010   */\n      tag_128\n        /* \"#utility.yul\":6003:6009   */\n      dup2\n        /* \"#utility.yul\":5995:6001   */\n      dup5\n        /* \"#utility.yul\":5989:5993   */\n      dup5\n        /* \"#utility.yul\":5945:6010   */\n      tag_51\n      jump\t// in\n    tag_128:\n        /* \"#utility.yul\":5880:6016   */\n      pop\n        /* \"#utility.yul\":5827:6016   */\n      pop\n      pop\n      jump\t// out\n        /* \"#utility.yul\":6022:6208   */\n    tag_54:\n        /* \"#utility.yul\":6082:6202   */\n    tag_130:\n        /* \"#utility.yul\":6099:6102   */\n      dup2\n        /* \"#utility.yul\":6092:6097   */\n      dup2\n        /* \"#utility.yul\":6089:6103   */\n      lt\n        /* \"#utility.yul\":6082:6202   */\n      iszero\n      tag_132\n      jumpi\n        /* \"#utility.yul\":6153:6192   */\n      tag_133\n        /* \"#utility.yul\":6190:6191   */\n      0x00\n        /* \"#utility.yul\":6183:6188   */\n      dup3\n        /* \"#utility.yul\":6153:6192   */\n      tag_53\n      jump\t// in\n    tag_133:\n        /* \"#utility.yul\":6126:6127   */\n      0x01\n        /* \"#utility.yul\":6119:6124   */\n      dup2\n        /* \"#utility.yul\":6115:6128   */\n      add\n        /* \"#utility.yul\":6106:6128   */\n      swap1\n      pop\n        /* \"#utility.yul\":6082:6202   */\n      jump(tag_130)\n    tag_132:\n        /* \"#utility.yul\":6022:6208   */\n      pop\n      pop\n      jump\t// out\n        /* \"#utility.yul\":6214:6757   */\n    tag_55:\n        /* \"#utility.yul\":6315:6317   */\n      0x1f\n        /* \"#utility.yul\":6310:6313   */\n      dup3\n        /* \"#utility.yul\":6307:6318   */\n      gt\n        /* \"#utility.yul\":6304:6750   */\n      iszero\n      tag_135\n      jumpi\n        /* \"#utility.yul\":6349:6387   */\n      tag_136\n        /* \"#utility.yul\":6381:6386   */\n      dup2\n        /* \"#utility.yul\":6349:6387   */\n      tag_43\n      jump\t// in\n    tag_136:\n        /* \"#utility.yul\":6433:6462   */\n      tag_137\n        /* \"#utility.yul\":6451:6461   */\n      dup5\n        /* \"#utility.yul\":6433:6462   */\n      tag_44\n      jump\t// in\n    tag_137:\n        /* \"#utility.yul\":6423:6431   */\n      dup2\n        /* \"#utility.yul\":6419:6463   */\n      add\n        /* \"#utility.yul\":6616:6618   */\n      0x20\n        /* \"#utility.yul\":6604:6614   */\n      dup6\n        /* \"#utility.yul\":6601:6619   */\n      lt\n        /* \"#utility.yul\":6598:6647   */\n      iszero\n      tag_138\n      jumpi\n        /* \"#utility.yul\":6637:6645   */\n      dup2\n        /* \"#utility.yul\":6622:6645   */\n      swap1\n      pop\n        /* \"#utility.yul\":6598:6647   */\n    tag_138:\n        /* \"#utility.yul\":6660:6740   */\n      tag_139\n        /* \"#utility.yul\":6716:6738   */\n      tag_140\n        /* \"#utility.yul\":6734:6737   */\n      dup6\n        /* \"#utility.yul\":6716:6738   */\n      tag_44\n      jump\t// in\n    tag_140:\n        /* \"#utility.yul\":6706:6714   */\n      dup4\n        /* \"#utility.yul\":6702:6739   */\n      add\n        /* \"#utility.yul\":6689:6700   */\n      dup3\n        /* \"#utility.yul\":6660:6740   */\n      tag_54\n      jump\t// in\n    tag_139:\n        /* \"#utility.yul\":6319:6750   */\n      pop\n      pop\n        /* \"#utility.yul\":6304:6750   */\n    tag_135:\n        /* \"#utility.yul\":6214:6757   */\n      pop\n      pop\n      pop\n      jump\t// out\n        /* \"#utility.yul\":6763:6880   */\n    tag_56:\n        /* \"#utility.yul\":6817:6825   */\n      0x00\n        /* \"#utility.yul\":6867:6872   */\n      dup3\n        /* \"#utility.yul\":6861:6865   */\n      dup3\n        /* \"#utility.yul\":6857:6873   */\n      shr\n        /* \"#utility.yul\":6836:6873   */\n      swap1\n      pop\n        /* \"#utility.yul\":6763:6880   */\n      swap3\n      swap2\n      pop\n      pop\n      jump\t// out\n        /* \"#utility.yul\":6886:7055   */\n    tag_57:\n        /* \"#utility.yul\":6930:6936   */\n      0x00\n        /* \"#utility.yul\":6963:7014   */\n      tag_143\n        /* \"#utility.yul\":7011:7012   */\n      0x00\n        /* \"#utility.yul\":7007:7013   */\n      not\n        /* \"#utility.yul\":6999:7004   */\n      dup5\n        /* \"#utility.yul\":6996:6997   */\n      0x08\n        /* \"#utility.yul\":6992:7005   */\n      mul\n        /* \"#utility.yul\":6963:7014   */\n      tag_56\n      jump\t// in\n    tag_143:\n        /* \"#utility.yul\":6959:7015   */\n      not\n        /* \"#utility.yul\":7044:7048   */\n      dup1\n        /* \"#utility.yul\":7038:7042   */\n      dup4\n        /* \"#utility.yul\":7034:7049   */\n      and\n        /* \"#utility.yul\":7024:7049   */\n      swap2\n      pop\n        /* \"#utility.yul\":6937:7055   */\n      pop\n        /* \"#utility.yul\":6886:7055   */\n      swap3\n      swap2\n      pop\n      pop\n      jump\t// out\n        /* \"#utility.yul\":7060:7355   */\n    tag_58:\n        /* \"#utility.yul\":7136:7140   */\n      0x00\n        /* \"#utility.yul\":7282:7311   */\n      tag_145\n        /* \"#utility.yul\":7307:7310   */\n      dup4\n        /* \"#utility.yul\":7301:7305   */\n      dup4\n        /* \"#utility.yul\":7282:7311   */\n      tag_57\n      jump\t// in\n    tag_145:\n        /* \"#utility.yul\":7274:7311   */\n      swap2\n      pop\n        /* \"#utility.yul\":7344:7347   */\n      dup3\n        /* \"#utility.yul\":7341:7342   */\n      0x02\n        /* \"#utility.yul\":7337:7348   */\n      mul\n        /* \"#utility.yul\":7331:7335   */\n      dup3\n        /* \"#utility.yul\":7328:7349   */\n      or\n        /* \"#utility.yul\":7320:7349   */\n      swap1\n      pop\n        /* \"#utility.yul\":7060:7355   */\n      swap3\n      swap2\n      pop\n      pop\n      jump\t// out\n        /* \"#utility.yul\":7360:8755   */\n    tag_23:\n        /* \"#utility.yul\":7477:7514   */\n      tag_147\n        /* \"#utility.yul\":7510:7513   */\n      dup3\n        /* \"#utility.yul\":7477:7514   */\n      tag_40\n      jump\t// in\n    tag_147:\n        /* \"#utility.yul\":7579:7597   */\n      0xffffffffffffffff\n        /* \"#utility.yul\":7571:7577   */\n      dup2\n        /* \"#utility.yul\":7568:7598   */\n      gt\n        /* \"#utility.yul\":7565:7621   */\n      iszero\n      tag_148\n      jumpi\n        /* \"#utility.yul\":7601:7619   */\n      tag_149\n      tag_30\n      jump\t// in\n    tag_149:\n        /* \"#utility.yul\":7565:7621   */\n    tag_148:\n        /* \"#utility.yul\":7645:7683   */\n      tag_150\n        /* \"#utility.yul\":7677:7681   */\n      dup3\n        /* \"#utility.yul\":7671:7682   */\n      sload\n        /* \"#utility.yul\":7645:7683   */\n      tag_42\n      jump\t// in\n    tag_150:\n        /* \"#utility.yul\":7730:7797   */\n      tag_151\n        /* \"#utility.yul\":7790:7796   */\n      dup3\n        /* \"#utility.yul\":7782:7788   */\n      dup3\n        /* \"#utility.yul\":7776:7780   */\n      dup6\n        /* \"#utility.yul\":7730:7797   */\n      tag_55\n      jump\t// in\n    tag_151:\n        /* \"#utility.yul\":7824:7825   */\n      0x00\n        /* \"#utility.yul\":7848:7852   */\n      0x20\n        /* \"#utility.yul\":7835:7852   */\n      swap1\n      pop\n        /* \"#utility.yul\":7880:7882   */\n      0x1f\n        /* \"#utility.yul\":7872:7878   */\n      dup4\n        /* \"#utility.yul\":7869:7883   */\n      gt\n        /* \"#utility.yul\":7897:7898   */\n      0x01\n        /* \"#utility.yul\":7892:8510   */\n      dup2\n      eq\n      tag_153\n      jumpi\n        /* \"#utility.yul\":8554:8555   */\n      0x00\n        /* \"#utility.yul\":8571:8577   */\n      dup5\n        /* \"#utility.yul\":8568:8645   */\n      iszero\n      tag_154\n      jumpi\n        /* \"#utility.yul\":8620:8629   */\n      dup3\n        /* \"#utility.yul\":8615:8618   */\n      dup8\n        /* \"#utility.yul\":8611:8630   */\n      add\n        /* \"#utility.yul\":8605:8631   */\n      mload\n        /* \"#utility.yul\":8596:8631   */\n      swap1\n      pop\n        /* \"#utility.yul\":8568:8645   */\n    tag_154:\n        /* \"#utility.yul\":8671:8738   */\n      tag_155\n        /* \"#utility.yul\":8731:8737   */\n      dup6\n        /* \"#utility.yul\":8724:8729   */\n      dup3\n        /* \"#utility.yul\":8671:8738   */\n      tag_58\n      jump\t// in\n    tag_155:\n        /* \"#utility.yul\":8665:8669   */\n      dup7\n        /* \"#utility.yul\":8658:8739   */\n      sstore\n        /* \"#utility.yul\":8527:8749   */\n      pop\n        /* \"#utility.yul\":7862:8749   */\n      jump(tag_152)\n        /* \"#utility.yul\":7892:8510   */\n    tag_153:\n        /* \"#utility.yul\":7944:7948   */\n      0x1f\n        /* \"#utility.yul\":7940:7949   */\n      not\n        /* \"#utility.yul\":7932:7938   */\n      dup5\n        /* \"#utility.yul\":7928:7950   */\n      and\n        /* \"#utility.yul\":7978:8015   */\n      tag_156\n        /* \"#utility.yul\":8010:8014   */\n      dup7\n        /* \"#utility.yul\":7978:8015   */\n      tag_43\n      jump\t// in\n    tag_156:\n        /* \"#utility.yul\":8037:8038   */\n      0x00\n        /* \"#utility.yul\":8051:8259   */\n    tag_157:\n        /* \"#utility.yul\":8065:8072   */\n      dup3\n        /* \"#utility.yul\":8062:8063   */\n      dup2\n        /* \"#utility.yul\":8059:8073   */\n      lt\n        /* \"#utility.yul\":8051:8259   */\n      iszero\n      tag_159\n      jumpi\n        /* \"#utility.yul\":8144:8153   */\n      dup5\n        /* \"#utility.yul\":8139:8142   */\n      dup10\n        /* \"#utility.yul\":8135:8154   */\n      add\n        /* \"#utility.yul\":8129:8155   */\n      mload\n        /* \"#utility.yul\":8121:8127   */\n      dup3\n        /* \"#utility.yul\":8114:8156   */\n      sstore\n        /* \"#utility.yul\":8195:8196   */\n      0x01\n        /* \"#utility.yul\":8187:8193   */\n      dup3\n        /* \"#utility.yul\":8183:8197   */\n      add\n        /* \"#utility.yul\":8173:8197   */\n      swap2\n      pop\n        /* \"#utility.yul\":8242:8244   */\n      0x20\n        /* \"#utility.yul\":8231:8240   */\n      dup6\n        /* \"#utility.yul\":8227:8245   */\n      add\n        /* \"#utility.yul\":8214:8245   */\n      swap5\n      pop\n        /* \"#utility.yul\":8088:8092   */\n      0x20\n        /* \"#utility.yul\":8085:8086   */\n      dup2\n        /* \"#utility.yul\":8081:8093   */\n      add\n        /* \"#utility.yul\":8076:8093   */\n      swap1\n      pop\n        /* \"#utility.yul\":8051:8259   */\n      jump(tag_157)\n    tag_159:\n        /* \"#utility.yul\":8287:8293   */\n      dup7\n        /* \"#utility.yul\":8278:8285   */\n      dup4\n        /* \"#utility.yul\":8275:8294   */\n      lt\n        /* \"#utility.yul\":8272:8451   */\n      iszero\n      tag_160\n      jumpi\n        /* \"#utility.yul\":8345:8354   */\n      dup5\n        /* \"#utility.yul\":8340:8343   */\n      dup10\n        /* \"#utility.yul\":8336:8355   */\n      add\n        /* \"#utility.yul\":8330:8356   */\n      mload\n        /* \"#utility.yul\":8388:8436   */\n      tag_161\n        /* \"#utility.yul\":8430:8434   */\n      0x1f\n        /* \"#utility.yul\":8422:8428   */\n      dup10\n        /* \"#utility.yul\":8418:8435   */\n      and\n        /* \"#utility.yul\":8407:8416   */\n      dup3\n        /* \"#utility.yul\":8388:8436   */\n      tag_57\n      jump\t// in\n    tag_161:\n        /* \"#utility.yul\":8380:8386   */\n      dup4\n        /* \"#utility.yul\":8373:8437   */\n      sstore\n        /* \"#utility.yul\":8295:8451   */\n      pop\n        /* \"#utility.yul\":8272:8451   */\n    tag_160:\n        /* \"#utility.yul\":8497:8498   */\n      0x01\n        /* \"#utility.yul\":8493:8494   */\n      0x02\n        /* \"#utility.yul\":8485:8491   */\n      dup9\n        /* \"#utility.yul\":8481:8495   */\n      mul\n        /* \"#utility.yul\":8477:8499   */\n      add\n        /* \"#utility.yul\":8471:8475   */\n      dup9\n        /* \"#utility.yul\":8464:8500   */\n      sstore\n        /* \"#utility.yul\":7899:8510   */\n      pop\n      pop\n      pop\n        /* \"#utility.yul\":7862:8749   */\n    tag_152:\n      pop\n        /* \"#utility.yul\":7452:8755   */\n      pop\n      pop\n      pop\n        /* \"#utility.yul\":7360:8755   */\n      pop\n      pop\n      jump\t// out\n\n    auxdata: 0xa2646970667358221220f7b87cfa9d5612051cb6e690ef196731371eed4aef569c2a717fbd744542761464736f6c634300081a0033\n}\n",
				"bytecode": {
					"linkReferences": {},
					"object": "6080604052348015600e575f80fd5b503360015f6101000a81548173ffffffffffffffffffffffffffffffffffffffff021916908373ffffffffffffffffffffffffffffffffffffffff1602179055506106228061005c5f395ff3fe60806040526004361061002c575f3560e01c8063c4784fd41461009b578063f851a440146100c357610097565b366100975760015f9054906101000a900473ffffffffffffffffffffffffffffffffffffffff1673ffffffffffffffffffffffffffffffffffffffff166108fc3490811502906040515f60405180830381858888f19350505050158015610095573d5f803e3d5ffd5b005b5f80fd5b3480156100a6575f80fd5b506100c160048036038101906100bc9190610271565b6100ed565b005b3480156100ce575f80fd5b506100d76100ff565b6040516100e491906102f7565b60405180910390f35b805f90816100fb919061051d565b5050565b60015f9054906101000a900473ffffffffffffffffffffffffffffffffffffffff1681565b5f604051905090565b5f80fd5b5f80fd5b5f80fd5b5f80fd5b5f601f19601f8301169050919050565b7f4e487b71000000000000000000000000000000000000000000000000000000005f52604160045260245ffd5b6101838261013d565b810181811067ffffffffffffffff821117156101a2576101a161014d565b5b80604052505050565b5f6101b4610124565b90506101c0828261017a565b919050565b5f67ffffffffffffffff8211156101df576101de61014d565b5b6101e88261013d565b9050602081019050919050565b828183375f83830152505050565b5f610215610210846101c5565b6101ab565b90508281526020810184848401111561023157610230610139565b5b61023c8482856101f5565b509392505050565b5f82601f83011261025857610257610135565b5b8135610268848260208601610203565b91505092915050565b5f602082840312156102865761028561012d565b5b5f82013567ffffffffffffffff8111156102a3576102a2610131565b5b6102af84828501610244565b91505092915050565b5f73ffffffffffffffffffffffffffffffffffffffff82169050919050565b5f6102e1826102b8565b9050919050565b6102f1816102d7565b82525050565b5f60208201905061030a5f8301846102e8565b92915050565b5f81519050919050565b7f4e487b71000000000000000000000000000000000000000000000000000000005f52602260045260245ffd5b5f600282049050600182168061035e57607f821691505b6020821081036103715761037061031a565b5b50919050565b5f819050815f5260205f209050919050565b5f6020601f8301049050919050565b5f82821b905092915050565b5f600883026103d37fffffffffffffffffffffffffffffffffffffffffffffffffffffffffffffffff82610398565b6103dd8683610398565b95508019841693508086168417925050509392505050565b5f819050919050565b5f819050919050565b5f61042161041c610417846103f5565b6103fe565b6103f5565b9050919050565b5f819050919050565b61043a83610407565b61044e61044682610428565b8484546103a4565b825550505050565b5f90565b610462610456565b61046d818484610431565b505050565b5b81811015610490576104855f8261045a565b600181019050610473565b5050565b601f8211156104d5576104a681610377565b6104af84610389565b810160208510156104be578190505b6104d26104ca85610389565b830182610472565b50505b505050565b5f82821c905092915050565b5f6104f55f19846008026104da565b1980831691505092915050565b5f61050d83836104e6565b9150826002028217905092915050565b61052682610310565b67ffffffffffffffff81111561053f5761053e61014d565b5b6105498254610347565b610554828285610494565b5f60209050601f831160018114610585575f8415610573578287015190505b61057d8582610502565b8655506105e4565b601f19841661059386610377565b5f5b828110156105ba57848901518255600182019150602085019450602081019050610595565b868310156105d757848901516105d3601f8916826104e6565b8355505b6001600288020188555050505b50505050505056fea2646970667358221220f7b87cfa9d5612051cb6e690ef196731371eed4aef569c2a717fbd744542761464736f6c634300081a0033",
					"opcodes": "PUSH1 0x80 PUSH1 0x40 MSTORE CALLVALUE DUP1 ISZERO PUSH1 0xE JUMPI PUSH0 DUP1 REVERT JUMPDEST POP CALLER PUSH1 0x1 PUSH0 PUSH2 0x100 EXP DUP2 SLOAD DUP2 PUSH20 0xFFFFFFFFFFFFFFFFFFFFFFFFFFFFFFFFFFFFFFFF MUL NOT AND SWAP1 DUP4 PUSH20 0xFFFFFFFFFFFFFFFFFFFFFFFFFFFFFFFFFFFFFFFF AND MUL OR SWAP1 SSTORE POP PUSH2 0x622 DUP1 PUSH2 0x5C PUSH0 CODECOPY PUSH0 RETURN INVALID PUSH1 0x80 PUSH1 0x40 MSTORE PUSH1 0x4 CALLDATASIZE LT PUSH2 0x2C JUMPI PUSH0 CALLDATALOAD PUSH1 0xE0 SHR DUP1 PUSH4 0xC4784FD4 EQ PUSH2 0x9B JUMPI DUP1 PUSH4 0xF851A440 EQ PUSH2 0xC3 JUMPI PUSH2 0x97 JUMP JUMPDEST CALLDATASIZE PUSH2 0x97 JUMPI PUSH1 0x1 PUSH0 SWAP1 SLOAD SWAP1 PUSH2 0x100 EXP SWAP1 DIV PUSH20 0xFFFFFFFFFFFFFFFFFFFFFFFFFFFFFFFFFFFFFFFF AND PUSH20 0xFFFFFFFFFFFFFFFFFFFFFFFFFFFFFFFFFFFFFFFF AND PUSH2 0x8FC CALLVALUE SWAP1 DUP2 ISZERO MUL SWAP1 PUSH1 0x40 MLOAD PUSH0 PUSH1 0x40 MLOAD DUP1 DUP4 SUB DUP2 DUP6 DUP9 DUP9 CALL SWAP4 POP POP POP POP ISZERO DUP1 ISZERO PUSH2 0x95 JUMPI RETURNDATASIZE PUSH0 DUP1 RETURNDATACOPY RETURNDATASIZE PUSH0 REVERT JUMPDEST STOP JUMPDEST PUSH0 DUP1 REVERT JUMPDEST CALLVALUE DUP1 ISZERO PUSH2 0xA6 JUMPI PUSH0 DUP1 REVERT JUMPDEST POP PUSH2 0xC1 PUSH1 0x4 DUP1 CALLDATASIZE SUB DUP2 ADD SWAP1 PUSH2 0xBC SWAP2 SWAP1 PUSH2 0x271 JUMP JUMPDEST PUSH2 0xED JUMP JUMPDEST STOP JUMPDEST CALLVALUE DUP1 ISZERO PUSH2 0xCE JUMPI PUSH0 DUP1 REVERT JUMPDEST POP PUSH2 0xD7 PUSH2 0xFF JUMP JUMPDEST PUSH1 0x40 MLOAD PUSH2 0xE4 SWAP2 SWAP1 PUSH2 0x2F7 JUMP JUMPDEST PUSH1 0x40 MLOAD DUP1 SWAP2 SUB SWAP1 RETURN JUMPDEST DUP1 PUSH0 SWAP1 DUP2 PUSH2 0xFB SWAP2 SWAP1 PUSH2 0x51D JUMP JUMPDEST POP POP JUMP JUMPDEST PUSH1 0x1 PUSH0 SWAP1 SLOAD SWAP1 PUSH2 0x100 EXP SWAP1 DIV PUSH20 0xFFFFFFFFFFFFFFFFFFFFFFFFFFFFFFFFFFFFFFFF AND DUP2 JUMP JUMPDEST PUSH0 PUSH1 0x40 MLOAD SWAP1 POP SWAP1 JUMP JUMPDEST PUSH0 DUP1 REVERT JUMPDEST PUSH0 DUP1 REVERT JUMPDEST PUSH0 DUP1 REVERT JUMPDEST PUSH0 DUP1 REVERT JUMPDEST PUSH0 PUSH1 0x1F NOT PUSH1 0x1F DUP4 ADD AND SWAP1 POP SWAP2 SWAP1 POP JUMP JUMPDEST PUSH32 0x4E487B7100000000000000000000000000000000000000000000000000000000 PUSH0 MSTORE PUSH1 0x41 PUSH1 0x4 MSTORE PUSH1 0x24 PUSH0 REVERT JUMPDEST PUSH2 0x183 DUP3 PUSH2 0x13D JUMP JUMPDEST DUP2 ADD DUP2 DUP2 LT PUSH8 0xFFFFFFFFFFFFFFFF DUP3 GT OR ISZERO PUSH2 0x1A2 JUMPI PUSH2 0x1A1 PUSH2 0x14D JUMP JUMPDEST JUMPDEST DUP1 PUSH1 0x40 MSTORE POP POP POP JUMP JUMPDEST PUSH0 PUSH2 0x1B4 PUSH2 0x124 JUMP JUMPDEST SWAP1 POP PUSH2 0x1C0 DUP3 DUP3 PUSH2 0x17A JUMP JUMPDEST SWAP2 SWAP1 POP JUMP JUMPDEST PUSH0 PUSH8 0xFFFFFFFFFFFFFFFF DUP3 GT ISZERO PUSH2 0x1DF JUMPI PUSH2 0x1DE PUSH2 0x14D JUMP JUMPDEST JUMPDEST PUSH2 0x1E8 DUP3 PUSH2 0x13D JUMP JUMPDEST SWAP1 POP PUSH1 0x20 DUP2 ADD SWAP1 POP SWAP2 SWAP1 POP JUMP JUMPDEST DUP3 DUP2 DUP4 CALLDATACOPY PUSH0 DUP4 DUP4 ADD MSTORE POP POP POP JUMP JUMPDEST PUSH0 PUSH2 0x215 PUSH2 0x210 DUP5 PUSH2 0x1C5 JUMP JUMPDEST PUSH2 0x1AB JUMP JUMPDEST SWAP1 POP DUP3 DUP2 MSTORE PUSH1 0x20 DUP2 ADD DUP5 DUP5 DUP5 ADD GT ISZERO PUSH2 0x231 JUMPI PUSH2 0x230 PUSH2 0x139 JUMP JUMPDEST JUMPDEST PUSH2 0x23C DUP5 DUP3 DUP6 PUSH2 0x1F5 JUMP JUMPDEST POP SWAP4 SWAP3 POP POP POP JUMP JUMPDEST PUSH0 DUP3 PUSH1 0x1F DUP4 ADD SLT PUSH2 0x258 JUMPI PUSH2 0x257 PUSH2 0x135 JUMP JUMPDEST JUMPDEST DUP2 CALLDATALOAD PUSH2 0x268 DUP5 DUP3 PUSH1 0x20 DUP7 ADD PUSH2 0x203 JUMP JUMPDEST SWAP2 POP POP SWAP3 SWAP2 POP POP JUMP JUMPDEST PUSH0 PUSH1 0x20 DUP3 DUP5 SUB SLT ISZERO PUSH2 0x286 JUMPI PUSH2 0x285 PUSH2 0x12D JUMP JUMPDEST JUMPDEST PUSH0 DUP3 ADD CALLDATALOAD PUSH8 0xFFFFFFFFFFFFFFFF DUP2 GT ISZERO PUSH2 0x2A3 JUMPI PUSH2 0x2A2 PUSH2 0x131 JUMP JUMPDEST JUMPDEST PUSH2 0x2AF DUP5 DUP3 DUP6 ADD PUSH2 0x244 JUMP JUMPDEST SWAP2 POP POP SWAP3 SWAP2 POP POP JUMP JUMPDEST PUSH0 PUSH20 0xFFFFFFFFFFFFFFFFFFFFFFFFFFFFFFFFFFFFFFFF DUP3 AND SWAP1 POP SWAP2 SWAP1 POP JUMP JUMPDEST PUSH0 PUSH2 0x2E1 DUP3 PUSH2 0x2B8 JUMP JUMPDEST SWAP1 POP SWAP2 SWAP1 POP JUMP JUMPDEST PUSH2 0x2F1 DUP2 PUSH2 0x2D7 JUMP JUMPDEST DUP3 MSTORE POP POP JUMP JUMPDEST PUSH0 PUSH1 0x20 DUP3 ADD SWAP1 POP PUSH2 0x30A PUSH0 DUP4 ADD DUP5 PUSH2 0x2E8 JUMP JUMPDEST SWAP3 SWAP2 POP POP JUMP JUMPDEST PUSH0 DUP2 MLOAD SWAP1 POP SWAP2 SWAP1 POP JUMP JUMPDEST PUSH32 0x4E487B7100000000000000000000000000000000000000000000000000000000 PUSH0 MSTORE PUSH1 0x22 PUSH1 0x4 MSTORE PUSH1 0x24 PUSH0 REVERT JUMPDEST PUSH0 PUSH1 0x2 DUP3 DIV SWAP1 POP PUSH1 0x1 DUP3 AND DUP1 PUSH2 0x35E JUMPI PUSH1 0x7F DUP3 AND SWAP2 POP JUMPDEST PUSH1 0x20 DUP3 LT DUP2 SUB PUSH2 0x371 JUMPI PUSH2 0x370 PUSH2 0x31A JUMP JUMPDEST JUMPDEST POP SWAP2 SWAP1 POP JUMP JUMPDEST PUSH0 DUP2 SWAP1 POP DUP2 PUSH0 MSTORE PUSH1 0x20 PUSH0 KECCAK256 SWAP1 POP SWAP2 SWAP1 POP JUMP JUMPDEST PUSH0 PUSH1 0x20 PUSH1 0x1F DUP4 ADD DIV SWAP1 POP SWAP2 SWAP1 POP JUMP JUMPDEST PUSH0 DUP3 DUP3 SHL SWAP1 POP SWAP3 SWAP2 POP POP JUMP JUMPDEST PUSH0 PUSH1 0x8 DUP4 MUL PUSH2 0x3D3 PUSH32 0xFFFFFFFFFFFFFFFFFFFFFFFFFFFFFFFFFFFFFFFFFFFFFFFFFFFFFFFFFFFFFFFF DUP3 PUSH2 0x398 JUMP JUMPDEST PUSH2 0x3DD DUP7 DUP4 PUSH2 0x398 JUMP JUMPDEST SWAP6 POP DUP1 NOT DUP5 AND SWAP4 POP DUP1 DUP7 AND DUP5 OR SWAP3 POP POP POP SWAP4 SWAP3 POP POP POP JUMP JUMPDEST PUSH0 DUP2 SWAP1 POP SWAP2 SWAP1 POP JUMP JUMPDEST PUSH0 DUP2 SWAP1 POP SWAP2 SWAP1 POP JUMP JUMPDEST PUSH0 PUSH2 0x421 PUSH2 0x41C PUSH2 0x417 DUP5 PUSH2 0x3F5 JUMP JUMPDEST PUSH2 0x3FE JUMP JUMPDEST PUSH2 0x3F5 JUMP JUMPDEST SWAP1 POP SWAP2 SWAP1 POP JUMP JUMPDEST PUSH0 DUP2 SWAP1 POP SWAP2 SWAP1 POP JUMP JUMPDEST PUSH2 0x43A DUP4 PUSH2 0x407 JUMP JUMPDEST PUSH2 0x44E PUSH2 0x446 DUP3 PUSH2 0x428 JUMP JUMPDEST DUP5 DUP5 SLOAD PUSH2 0x3A4 JUMP JUMPDEST DUP3 SSTORE POP POP POP POP JUMP JUMPDEST PUSH0 SWAP1 JUMP JUMPDEST PUSH2 0x462 PUSH2 0x456 JUMP JUMPDEST PUSH2 0x46D DUP2 DUP5 DUP5 PUSH2 0x431 JUMP JUMPDEST POP POP POP JUMP JUMPDEST JUMPDEST DUP2 DUP2 LT ISZERO PUSH2 0x490 JUMPI PUSH2 0x485 PUSH0 DUP3 PUSH2 0x45A JUMP JUMPDEST PUSH1 0x1 DUP2 ADD SWAP1 POP PUSH2 0x473 JUMP JUMPDEST POP POP JUMP JUMPDEST PUSH1 0x1F DUP3 GT ISZERO PUSH2 0x4D5 JUMPI PUSH2 0x4A6 DUP2 PUSH2 0x377 JUMP JUMPDEST PUSH2 0x4AF DUP5 PUSH2 0x389 JUMP JUMPDEST DUP2 ADD PUSH1 0x20 DUP6 LT ISZERO PUSH2 0x4BE JUMPI DUP2 SWAP1 POP JUMPDEST PUSH2 0x4D2 PUSH2 0x4CA DUP6 PUSH2 0x389 JUMP JUMPDEST DUP4 ADD DUP3 PUSH2 0x472 JUMP JUMPDEST POP POP JUMPDEST POP POP POP JUMP JUMPDEST PUSH0 DUP3 DUP3 SHR SWAP1 POP SWAP3 SWAP2 POP POP JUMP JUMPDEST PUSH0 PUSH2 0x4F5 PUSH0 NOT DUP5 PUSH1 0x8 MUL PUSH2 0x4DA JUMP JUMPDEST NOT DUP1 DUP4 AND SWAP2 POP POP SWAP3 SWAP2 POP POP JUMP JUMPDEST PUSH0 PUSH2 0x50D DUP4 DUP4 PUSH2 0x4E6 JUMP JUMPDEST SWAP2 POP DUP3 PUSH1 0x2 MUL DUP3 OR SWAP1 POP SWAP3 SWAP2 POP POP JUMP JUMPDEST PUSH2 0x526 DUP3 PUSH2 0x310 JUMP JUMPDEST PUSH8 0xFFFFFFFFFFFFFFFF DUP2 GT ISZERO PUSH2 0x53F JUMPI PUSH2 0x53E PUSH2 0x14D JUMP JUMPDEST JUMPDEST PUSH2 0x549 DUP3 SLOAD PUSH2 0x347 JUMP JUMPDEST PUSH2 0x554 DUP3 DUP3 DUP6 PUSH2 0x494 JUMP JUMPDEST PUSH0 PUSH1 0x20 SWAP1 POP PUSH1 0x1F DUP4 GT PUSH1 0x1 DUP2 EQ PUSH2 0x585 JUMPI PUSH0 DUP5 ISZERO PUSH2 0x573 JUMPI DUP3 DUP8 ADD MLOAD SWAP1 POP JUMPDEST PUSH2 0x57D DUP6 DUP3 PUSH2 0x502 JUMP JUMPDEST DUP7 SSTORE POP PUSH2 0x5E4 JUMP JUMPDEST PUSH1 0x1F NOT DUP5 AND PUSH2 0x593 DUP7 PUSH2 0x377 JUMP JUMPDEST PUSH0 JUMPDEST DUP3 DUP2 LT ISZERO PUSH2 0x5BA JUMPI DUP5 DUP10 ADD MLOAD DUP3 SSTORE PUSH1 0x1 DUP3 ADD SWAP2 POP PUSH1 0x20 DUP6 ADD SWAP5 POP PUSH1 0x20 DUP2 ADD SWAP1 POP PUSH2 0x595 JUMP JUMPDEST DUP7 DUP4 LT ISZERO PUSH2 0x5D7 JUMPI DUP5 DUP10 ADD MLOAD PUSH2 0x5D3 PUSH1 0x1F DUP10 AND DUP3 PUSH2 0x4E6 JUMP JUMPDEST DUP4 SSTORE POP JUMPDEST PUSH1 0x1 PUSH1 0x2 DUP9 MUL ADD DUP9 SSTORE POP POP POP JUMPDEST POP POP POP POP POP POP JUMP INVALID LOG2 PUSH5 0x6970667358 0x22 SLT KECCAK256 0xF7 0xB8 PUSH29 0xFA9D5612051CB6E690EF196731371EED4AEF569C2A717FBD7445427614 PUSH5 0x736F6C6343 STOP ADDMOD BYTE STOP CALLER "
				},
				"gasEstimates": {
					"creation": {
						"codeDepositCost": "314000",
						"executionCost": "24618",
						"totalCost": "338618"
					},
					"external": {
						"": "111",
						"admin()": "2508",
						"setMsg(string)": "infinite"
					}
				},
				"methodIdentifiers": {
					"admin()": "f851a440",
					"setMsg(string)": "c4784fd4"
				}
			},
			"storageLayout": {
				"storage": [
					{
						"astId": 3,
						"contract": "Fallback,Recive/example.sol:DemoF",
						"label": "Msg",
						"offset": 0,
						"slot": "0",
						"type": "t_string_storage"
					},
					{
						"astId": 5,
						"contract": "Fallback,Recive/example.sol:DemoF",
						"label": "admin",
						"offset": 0,
						"slot": "1",
						"type": "t_address_payable"
					}
				],
				"types": {
					"t_address_payable": {
						"encoding": "inplace",
						"label": "address payable",
						"numberOfBytes": "20"
					},
					"t_string_storage": {
						"encoding": "bytes",
						"label": "string",
						"numberOfBytes": "32"
					}
				}
			},
			"userdoc": {
				"kind": "user",
				"methods": {},
				"version": 1
			}
		}
	}
}